{
  "contractName": "SwapifyRouter",
  "abi": [
    {
      "inputs": [
        {
          "internalType": "address",
          "name": "_factory",
          "type": "address"
        },
        {
          "internalType": "address",
          "name": "_WETH",
          "type": "address"
        },
        {
          "internalType": "address",
          "name": "_lottery",
          "type": "address"
        }
      ],
      "stateMutability": "nonpayable",
      "type": "constructor"
    },
    {
      "inputs": [],
      "name": "WETH",
      "outputs": [
        {
          "internalType": "address",
          "name": "",
          "type": "address"
        }
      ],
      "stateMutability": "view",
      "type": "function",
      "constant": true
    },
    {
      "inputs": [],
      "name": "factory",
      "outputs": [
        {
          "internalType": "address",
          "name": "",
          "type": "address"
        }
      ],
      "stateMutability": "view",
      "type": "function",
      "constant": true
    },
    {
      "inputs": [],
      "name": "lottery",
      "outputs": [
        {
          "internalType": "address",
          "name": "",
          "type": "address"
        }
      ],
      "stateMutability": "view",
      "type": "function",
      "constant": true
    },
    {
      "stateMutability": "payable",
      "type": "receive",
      "payable": true
    },
    {
      "inputs": [
        {
          "internalType": "address",
          "name": "tokenA",
          "type": "address"
        },
        {
          "internalType": "address",
          "name": "tokenB",
          "type": "address"
        },
        {
          "internalType": "uint256",
          "name": "amountADesired",
          "type": "uint256"
        },
        {
          "internalType": "uint256",
          "name": "amountBDesired",
          "type": "uint256"
        },
        {
          "internalType": "uint256",
          "name": "amountAMin",
          "type": "uint256"
        },
        {
          "internalType": "uint256",
          "name": "amountBMin",
          "type": "uint256"
        },
        {
          "internalType": "address",
          "name": "to",
          "type": "address"
        },
        {
          "internalType": "uint256",
          "name": "deadline",
          "type": "uint256"
        }
      ],
      "name": "addLiquidity",
      "outputs": [
        {
          "internalType": "uint256",
          "name": "amountA",
          "type": "uint256"
        },
        {
          "internalType": "uint256",
          "name": "amountB",
          "type": "uint256"
        },
        {
          "internalType": "uint256",
          "name": "liquidity",
          "type": "uint256"
        }
      ],
      "stateMutability": "nonpayable",
      "type": "function"
    },
    {
      "inputs": [
        {
          "internalType": "address",
          "name": "token",
          "type": "address"
        },
        {
          "internalType": "uint256",
          "name": "amountTokenDesired",
          "type": "uint256"
        },
        {
          "internalType": "uint256",
          "name": "amountTokenMin",
          "type": "uint256"
        },
        {
          "internalType": "uint256",
          "name": "amountETHMin",
          "type": "uint256"
        },
        {
          "internalType": "address",
          "name": "to",
          "type": "address"
        },
        {
          "internalType": "uint256",
          "name": "deadline",
          "type": "uint256"
        }
      ],
      "name": "addLiquidityETH",
      "outputs": [
        {
          "internalType": "uint256",
          "name": "amountToken",
          "type": "uint256"
        },
        {
          "internalType": "uint256",
          "name": "amountETH",
          "type": "uint256"
        },
        {
          "internalType": "uint256",
          "name": "liquidity",
          "type": "uint256"
        }
      ],
      "stateMutability": "payable",
      "type": "function",
      "payable": true
    },
    {
      "inputs": [
        {
          "internalType": "address",
          "name": "tokenA",
          "type": "address"
        },
        {
          "internalType": "address",
          "name": "tokenB",
          "type": "address"
        },
        {
          "internalType": "uint256",
          "name": "liquidity",
          "type": "uint256"
        },
        {
          "internalType": "uint256",
          "name": "amountAMin",
          "type": "uint256"
        },
        {
          "internalType": "uint256",
          "name": "amountBMin",
          "type": "uint256"
        },
        {
          "internalType": "address",
          "name": "to",
          "type": "address"
        },
        {
          "internalType": "uint256",
          "name": "deadline",
          "type": "uint256"
        }
      ],
      "name": "removeLiquidity",
      "outputs": [
        {
          "internalType": "uint256",
          "name": "amountA",
          "type": "uint256"
        },
        {
          "internalType": "uint256",
          "name": "amountB",
          "type": "uint256"
        }
      ],
      "stateMutability": "nonpayable",
      "type": "function"
    },
    {
      "inputs": [
        {
          "internalType": "address",
          "name": "token",
          "type": "address"
        },
        {
          "internalType": "uint256",
          "name": "liquidity",
          "type": "uint256"
        },
        {
          "internalType": "uint256",
          "name": "amountTokenMin",
          "type": "uint256"
        },
        {
          "internalType": "uint256",
          "name": "amountETHMin",
          "type": "uint256"
        },
        {
          "internalType": "address",
          "name": "to",
          "type": "address"
        },
        {
          "internalType": "uint256",
          "name": "deadline",
          "type": "uint256"
        }
      ],
      "name": "removeLiquidityETH",
      "outputs": [
        {
          "internalType": "uint256",
          "name": "amountToken",
          "type": "uint256"
        },
        {
          "internalType": "uint256",
          "name": "amountETH",
          "type": "uint256"
        }
      ],
      "stateMutability": "nonpayable",
      "type": "function"
    },
    {
      "inputs": [
        {
          "internalType": "address",
          "name": "tokenA",
          "type": "address"
        },
        {
          "internalType": "address",
          "name": "tokenB",
          "type": "address"
        },
        {
          "internalType": "uint256",
          "name": "liquidity",
          "type": "uint256"
        },
        {
          "internalType": "uint256",
          "name": "amountAMin",
          "type": "uint256"
        },
        {
          "internalType": "uint256",
          "name": "amountBMin",
          "type": "uint256"
        },
        {
          "internalType": "address",
          "name": "to",
          "type": "address"
        },
        {
          "internalType": "uint256",
          "name": "deadline",
          "type": "uint256"
        },
        {
          "internalType": "bool",
          "name": "approveMax",
          "type": "bool"
        },
        {
          "internalType": "uint8",
          "name": "v",
          "type": "uint8"
        },
        {
          "internalType": "bytes32",
          "name": "r",
          "type": "bytes32"
        },
        {
          "internalType": "bytes32",
          "name": "s",
          "type": "bytes32"
        }
      ],
      "name": "removeLiquidityWithPermit",
      "outputs": [
        {
          "internalType": "uint256",
          "name": "amountA",
          "type": "uint256"
        },
        {
          "internalType": "uint256",
          "name": "amountB",
          "type": "uint256"
        }
      ],
      "stateMutability": "nonpayable",
      "type": "function"
    },
    {
      "inputs": [
        {
          "internalType": "address",
          "name": "token",
          "type": "address"
        },
        {
          "internalType": "uint256",
          "name": "liquidity",
          "type": "uint256"
        },
        {
          "internalType": "uint256",
          "name": "amountTokenMin",
          "type": "uint256"
        },
        {
          "internalType": "uint256",
          "name": "amountETHMin",
          "type": "uint256"
        },
        {
          "internalType": "address",
          "name": "to",
          "type": "address"
        },
        {
          "internalType": "uint256",
          "name": "deadline",
          "type": "uint256"
        },
        {
          "internalType": "bool",
          "name": "approveMax",
          "type": "bool"
        },
        {
          "internalType": "uint8",
          "name": "v",
          "type": "uint8"
        },
        {
          "internalType": "bytes32",
          "name": "r",
          "type": "bytes32"
        },
        {
          "internalType": "bytes32",
          "name": "s",
          "type": "bytes32"
        }
      ],
      "name": "removeLiquidityETHWithPermit",
      "outputs": [
        {
          "internalType": "uint256",
          "name": "amountToken",
          "type": "uint256"
        },
        {
          "internalType": "uint256",
          "name": "amountETH",
          "type": "uint256"
        }
      ],
      "stateMutability": "nonpayable",
      "type": "function"
    },
    {
      "inputs": [
        {
          "internalType": "uint256",
          "name": "amountIn",
          "type": "uint256"
        },
        {
          "internalType": "uint256",
          "name": "amountOutMin",
          "type": "uint256"
        },
        {
          "internalType": "address[]",
          "name": "path",
          "type": "address[]"
        },
        {
          "internalType": "address",
          "name": "to",
          "type": "address"
        },
        {
          "internalType": "uint256",
          "name": "deadline",
          "type": "uint256"
        }
      ],
      "name": "swapExactTokensForTokens",
      "outputs": [
        {
          "internalType": "uint256[]",
          "name": "amounts",
          "type": "uint256[]"
        }
      ],
      "stateMutability": "nonpayable",
      "type": "function"
    },
    {
      "inputs": [
        {
          "internalType": "uint256",
          "name": "amountOut",
          "type": "uint256"
        },
        {
          "internalType": "uint256",
          "name": "amountInMax",
          "type": "uint256"
        },
        {
          "internalType": "address[]",
          "name": "path",
          "type": "address[]"
        },
        {
          "internalType": "address",
          "name": "to",
          "type": "address"
        },
        {
          "internalType": "uint256",
          "name": "deadline",
          "type": "uint256"
        }
      ],
      "name": "swapTokensForExactTokens",
      "outputs": [
        {
          "internalType": "uint256[]",
          "name": "amounts",
          "type": "uint256[]"
        }
      ],
      "stateMutability": "nonpayable",
      "type": "function"
    },
    {
      "inputs": [
        {
          "internalType": "uint256",
          "name": "amountOutMin",
          "type": "uint256"
        },
        {
          "internalType": "address[]",
          "name": "path",
          "type": "address[]"
        },
        {
          "internalType": "address",
          "name": "to",
          "type": "address"
        },
        {
          "internalType": "uint256",
          "name": "deadline",
          "type": "uint256"
        }
      ],
      "name": "swapExactETHForTokens",
      "outputs": [
        {
          "internalType": "uint256[]",
          "name": "amounts",
          "type": "uint256[]"
        }
      ],
      "stateMutability": "payable",
      "type": "function",
      "payable": true
    },
    {
      "inputs": [
        {
          "internalType": "uint256",
          "name": "amountOut",
          "type": "uint256"
        },
        {
          "internalType": "uint256",
          "name": "amountInMax",
          "type": "uint256"
        },
        {
          "internalType": "address[]",
          "name": "path",
          "type": "address[]"
        },
        {
          "internalType": "address",
          "name": "to",
          "type": "address"
        },
        {
          "internalType": "uint256",
          "name": "deadline",
          "type": "uint256"
        }
      ],
      "name": "swapTokensForExactETH",
      "outputs": [
        {
          "internalType": "uint256[]",
          "name": "amounts",
          "type": "uint256[]"
        }
      ],
      "stateMutability": "nonpayable",
      "type": "function"
    },
    {
      "inputs": [
        {
          "internalType": "uint256",
          "name": "amountIn",
          "type": "uint256"
        },
        {
          "internalType": "uint256",
          "name": "amountOutMin",
          "type": "uint256"
        },
        {
          "internalType": "address[]",
          "name": "path",
          "type": "address[]"
        },
        {
          "internalType": "address",
          "name": "to",
          "type": "address"
        },
        {
          "internalType": "uint256",
          "name": "deadline",
          "type": "uint256"
        }
      ],
      "name": "swapExactTokensForETH",
      "outputs": [
        {
          "internalType": "uint256[]",
          "name": "amounts",
          "type": "uint256[]"
        }
      ],
      "stateMutability": "nonpayable",
      "type": "function"
    },
    {
      "inputs": [
        {
          "internalType": "uint256",
          "name": "amountOut",
          "type": "uint256"
        },
        {
          "internalType": "address[]",
          "name": "path",
          "type": "address[]"
        },
        {
          "internalType": "address",
          "name": "to",
          "type": "address"
        },
        {
          "internalType": "uint256",
          "name": "deadline",
          "type": "uint256"
        }
      ],
      "name": "swapETHForExactTokens",
      "outputs": [
        {
          "internalType": "uint256[]",
          "name": "amounts",
          "type": "uint256[]"
        }
      ],
      "stateMutability": "payable",
      "type": "function",
      "payable": true
    },
    {
      "inputs": [
        {
          "internalType": "uint256",
          "name": "amountA",
          "type": "uint256"
        },
        {
          "internalType": "uint256",
          "name": "reserveA",
          "type": "uint256"
        },
        {
          "internalType": "uint256",
          "name": "reserveB",
          "type": "uint256"
        }
      ],
      "name": "quote",
      "outputs": [
        {
          "internalType": "uint256",
          "name": "amountB",
          "type": "uint256"
        }
      ],
      "stateMutability": "pure",
      "type": "function",
      "constant": true
    },
    {
      "inputs": [
        {
          "internalType": "uint256",
          "name": "amountIn",
          "type": "uint256"
        },
        {
          "internalType": "uint256",
          "name": "reserveIn",
          "type": "uint256"
        },
        {
          "internalType": "uint256",
          "name": "reserveOut",
          "type": "uint256"
        }
      ],
      "name": "getAmountOut",
      "outputs": [
        {
          "internalType": "uint256",
          "name": "amountOut",
          "type": "uint256"
        }
      ],
      "stateMutability": "pure",
      "type": "function",
      "constant": true
    },
    {
      "inputs": [
        {
          "internalType": "uint256",
          "name": "amountOut",
          "type": "uint256"
        },
        {
          "internalType": "uint256",
          "name": "reserveIn",
          "type": "uint256"
        },
        {
          "internalType": "uint256",
          "name": "reserveOut",
          "type": "uint256"
        }
      ],
      "name": "getAmountIn",
      "outputs": [
        {
          "internalType": "uint256",
          "name": "amountIn",
          "type": "uint256"
        }
      ],
      "stateMutability": "pure",
      "type": "function",
      "constant": true
    },
    {
      "inputs": [
        {
          "internalType": "uint256",
          "name": "amountIn",
          "type": "uint256"
        },
        {
          "internalType": "address[]",
          "name": "path",
          "type": "address[]"
        }
      ],
      "name": "getAmountsOut",
      "outputs": [
        {
          "internalType": "uint256[]",
          "name": "amounts",
          "type": "uint256[]"
        }
      ],
      "stateMutability": "view",
      "type": "function",
      "constant": true
    },
    {
      "inputs": [
        {
          "internalType": "uint256",
          "name": "amountOut",
          "type": "uint256"
        },
        {
          "internalType": "address[]",
          "name": "path",
          "type": "address[]"
        }
      ],
      "name": "getAmountsIn",
      "outputs": [
        {
          "internalType": "uint256[]",
          "name": "amounts",
          "type": "uint256[]"
        }
      ],
      "stateMutability": "view",
      "type": "function",
      "constant": true
    }
  ],
  "bytecode": "0x60e060405234801561001057600080fd5b5060405162005653380380620056538339818101604052606081101561003557600080fd5b810190808051906020019092919080519060200190929190805190602001909291905050508273ffffffffffffffffffffffffffffffffffffffff1660808173ffffffffffffffffffffffffffffffffffffffff1660601b815250508173ffffffffffffffffffffffffffffffffffffffff1660a08173ffffffffffffffffffffffffffffffffffffffff1660601b815250508073ffffffffffffffffffffffffffffffffffffffff1660c08173ffffffffffffffffffffffffffffffffffffffff1660601b8152505050505060805160601c60a05160601c60c05160601c61542b62000228600039806116f15280611b925280611fb152806125d9528061291e5280612a6f52806139de52508061012a52806111e252806112205280611350528061162e5280611d2252806120bd528061220452806123cc52806124615280612a355280612e975280613235528061328e52806132c252806133435280613583528061374852806137dd525080611442528061154e52806117c152806117f952806119f25280611afe5280611e145280611f1d52806122f152806124a05280612781528061288a5280612b125280612e145280612e3d5280612e7552806130a7528061326c5280613670528061381c52806144db528061451f5280614bf25280614d1a5280614e30525061542b6000f3fe6080604052600436106101235760003560e01c8063ad5c4648116100a0578063d06ca61f11610064578063d06ca61f14610cc6578063ded9382a14610dea578063e8e3370014610ecc578063f305d71914610fb2578063fb3bdb41146110605761017f565b8063ad5c464814610a8a578063ad615dec14610ae1578063ba13a57214610b44578063baa2abde14610b9b578063c45a015514610c6f5761017f565b806338ed1739116100e757806338ed1739146105da5780634a25d94a146106f35780637ff36ab51461080c57806385f8c2591461090e5780638803dbee146109715761017f565b806302751cec14610184578063054d50d41461023857806318cbafe51461029b5780631f00ca74146103b45780632195995c146104d85761017f565b3661017f577f000000000000000000000000000000000000000000000000000000000000000073ffffffffffffffffffffffffffffffffffffffff163373ffffffffffffffffffffffffffffffffffffffff161461017d57fe5b005b600080fd5b34801561019057600080fd5b5061021b600480360360c08110156101a757600080fd5b81019080803573ffffffffffffffffffffffffffffffffffffffff169060200190929190803590602001909291908035906020019092919080359060200190929190803573ffffffffffffffffffffffffffffffffffffffff16906020019092919080359060200190929190505050611162565b604051808381526020018281526020019250505060405180910390f35b34801561024457600080fd5b506102856004803603606081101561025b57600080fd5b810190808035906020019092919080359060200190929190803590602001909291905050506112bf565b6040518082815260200191505060405180910390f35b3480156102a757600080fd5b5061035d600480360360a08110156102be57600080fd5b810190808035906020019092919080359060200190929190803590602001906401000000008111156102ef57600080fd5b82018360208201111561030157600080fd5b8035906020019184602083028401116401000000008311171561032357600080fd5b9091929391929390803573ffffffffffffffffffffffffffffffffffffffff169060200190929190803590602001909291905050506112d5565b6040518080602001828103825283818151815260200191508051906020019060200280838360005b838110156103a0578082015181840152602081019050610385565b505050509050019250505060405180910390f35b3480156103c057600080fd5b50610481600480360360408110156103d757600080fd5b8101908080359060200190929190803590602001906401000000008111156103fe57600080fd5b82018360208201111561041057600080fd5b8035906020019184602083028401116401000000008311171561043257600080fd5b919080806020026020016040519081016040528093929190818152602001838360200280828437600081840152601f19601f8201169050808301925050505050505091929192905050506117ba565b6040518080602001828103825283818151815260200191508051906020019060200280838360005b838110156104c45780820151818401526020810190506104a9565b505050509050019250505060405180910390f35b3480156104e457600080fd5b506105bd60048036036101608110156104fc57600080fd5b81019080803573ffffffffffffffffffffffffffffffffffffffff169060200190929190803573ffffffffffffffffffffffffffffffffffffffff169060200190929190803590602001909291908035906020019092919080359060200190929190803573ffffffffffffffffffffffffffffffffffffffff16906020019092919080359060200190929190803515159060200190929190803560ff16906020019092919080359060200190929190803590602001909291905050506117ef565b604051808381526020018281526020019250505060405180910390f35b3480156105e657600080fd5b5061069c600480360360a08110156105fd57600080fd5b8101908080359060200190929190803590602001909291908035906020019064010000000081111561062e57600080fd5b82018360208201111561064057600080fd5b8035906020019184602083028401116401000000008311171561066257600080fd5b9091929391929390803573ffffffffffffffffffffffffffffffffffffffff16906020019092919080359060200190929190505050611974565b6040518080602001828103825283818151815260200191508051906020019060200280838360005b838110156106df5780820151818401526020810190506106c4565b505050509050019250505060405180910390f35b3480156106ff57600080fd5b506107b5600480360360a081101561071657600080fd5b8101908080359060200190929190803590602001909291908035906020019064010000000081111561074757600080fd5b82018360208201111561075957600080fd5b8035906020019184602083028401116401000000008311171561077b57600080fd5b9091929391929390803573ffffffffffffffffffffffffffffffffffffffff16906020019092919080359060200190929190505050611ca7565b6040518080602001828103825283818151815260200191508051906020019060200280838360005b838110156107f85780820151818401526020810190506107dd565b505050509050019250505060405180910390f35b6108b76004803603608081101561082257600080fd5b81019080803590602001909291908035906020019064010000000081111561084957600080fd5b82018360208201111561085b57600080fd5b8035906020019184602083028401116401000000008311171561087d57600080fd5b9091929391929390803573ffffffffffffffffffffffffffffffffffffffff16906020019092919080359060200190929190505050612189565b6040518080602001828103825283818151815260200191508051906020019060200280838360005b838110156108fa5780820151818401526020810190506108df565b505050509050019250505060405180910390f35b34801561091a57600080fd5b5061095b6004803603606081101561093157600080fd5b810190808035906020019092919080359060200190929190803590602001909291905050506126ed565b6040518082815260200191505060405180910390f35b34801561097d57600080fd5b50610a33600480360360a081101561099457600080fd5b810190808035906020019092919080359060200190929190803590602001906401000000008111156109c557600080fd5b8201836020820111156109d757600080fd5b803590602001918460208302840111640100000000831117156109f957600080fd5b9091929391929390803573ffffffffffffffffffffffffffffffffffffffff16906020019092919080359060200190929190505050612703565b6040518080602001828103825283818151815260200191508051906020019060200280838360005b83811015610a76578082015181840152602081019050610a5b565b505050509050019250505060405180910390f35b348015610a9657600080fd5b50610a9f612a33565b604051808273ffffffffffffffffffffffffffffffffffffffff1673ffffffffffffffffffffffffffffffffffffffff16815260200191505060405180910390f35b348015610aed57600080fd5b50610b2e60048036036060811015610b0457600080fd5b81019080803590602001909291908035906020019092919080359060200190929190505050612a57565b6040518082815260200191505060405180910390f35b348015610b5057600080fd5b50610b59612a6d565b604051808273ffffffffffffffffffffffffffffffffffffffff1673ffffffffffffffffffffffffffffffffffffffff16815260200191505060405180910390f35b348015610ba757600080fd5b50610c52600480360360e0811015610bbe57600080fd5b81019080803573ffffffffffffffffffffffffffffffffffffffff169060200190929190803573ffffffffffffffffffffffffffffffffffffffff169060200190929190803590602001909291908035906020019092919080359060200190929190803573ffffffffffffffffffffffffffffffffffffffff16906020019092919080359060200190929190505050612a91565b604051808381526020018281526020019250505060405180910390f35b348015610c7b57600080fd5b50610c84612e12565b604051808273ffffffffffffffffffffffffffffffffffffffff1673ffffffffffffffffffffffffffffffffffffffff16815260200191505060405180910390f35b348015610cd257600080fd5b50610d9360048036036040811015610ce957600080fd5b810190808035906020019092919080359060200190640100000000811115610d1057600080fd5b820183602082011115610d2257600080fd5b80359060200191846020830284011164010000000083111715610d4457600080fd5b919080806020026020016040519081016040528093929190818152602001838360200280828437600081840152601f19601f820116905080830192505050505050509192919290505050612e36565b6040518080602001828103825283818151815260200191508051906020019060200280838360005b83811015610dd6578082015181840152602081019050610dbb565b505050509050019250505060405180910390f35b348015610df657600080fd5b50610eaf6004803603610140811015610e0e57600080fd5b81019080803573ffffffffffffffffffffffffffffffffffffffff169060200190929190803590602001909291908035906020019092919080359060200190929190803573ffffffffffffffffffffffffffffffffffffffff16906020019092919080359060200190929190803515159060200190929190803560ff1690602001909291908035906020019092919080359060200190929190505050612e6b565b604051808381526020018281526020019250505060405180910390f35b348015610ed857600080fd5b50610f8e6004803603610100811015610ef057600080fd5b81019080803573ffffffffffffffffffffffffffffffffffffffff169060200190929190803573ffffffffffffffffffffffffffffffffffffffff16906020019092919080359060200190929190803590602001909291908035906020019092919080359060200190929190803573ffffffffffffffffffffffffffffffffffffffff1690602001909291908035906020019092919050505061300e565b60405180848152602001838152602001828152602001935050505060405180910390f35b61103c600480360360c0811015610fc857600080fd5b81019080803573ffffffffffffffffffffffffffffffffffffffff169060200190929190803590602001909291908035906020019092919080359060200190929190803573ffffffffffffffffffffffffffffffffffffffff169060200190929190803590602001909291905050506131b3565b60405180848152602001838152602001828152602001935050505060405180910390f35b61110b6004803603608081101561107657600080fd5b81019080803590602001909291908035906020019064010000000081111561109d57600080fd5b8201836020820111156110af57600080fd5b803590602001918460208302840111640100000000831117156110d157600080fd5b9091929391929390803573ffffffffffffffffffffffffffffffffffffffff16906020019092919080359060200190929190505050613508565b6040518080602001828103825283818151815260200191508051906020019060200280838360005b8381101561114e578082015181840152602081019050611133565b505050509050019250505060405180910390f35b60008082428110156111dc576040517f08c379a00000000000000000000000000000000000000000000000000000000081526004018080602001828103825260168152602001807f53776170696679526f757465723a20455850495245440000000000000000000081525060200191505060405180910390fd5b61120b897f00000000000000000000000000000000000000000000000000000000000000008a8a8a308a612a91565b809350819450505061121e898685613aa6565b7f000000000000000000000000000000000000000000000000000000000000000073ffffffffffffffffffffffffffffffffffffffff16632e1a7d4d836040518263ffffffff1660e01b815260040180828152602001915050600060405180830381600087803b15801561129157600080fd5b505af11580156112a5573d6000803e3d6000fd5b505050506112b38583613c9f565b50965096945050505050565b60006112cc848484613dfe565b90509392505050565b6060814281101561134e576040517f08c379a00000000000000000000000000000000000000000000000000000000081526004018080602001828103825260168152602001807f53776170696679526f757465723a20455850495245440000000000000000000081525060200191505060405180910390fd5b7f000000000000000000000000000000000000000000000000000000000000000073ffffffffffffffffffffffffffffffffffffffff1686866001898990500381811061139757fe5b9050602002013573ffffffffffffffffffffffffffffffffffffffff1673ffffffffffffffffffffffffffffffffffffffff161461143d576040517f08c379a000000000000000000000000000000000000000000000000000000000815260040180806020018281038252601b8152602001807f53776170696679526f757465723a20494e56414c49445f50415448000000000081525060200191505060405180910390fd5b6114a97f000000000000000000000000000000000000000000000000000000000000000089888880806020026020016040519081016040528093929190818152602001838360200280828437600081840152601f19601f82011690508083019250505050505050613f2e565b915086826001845103815181106114bc57fe5b6020026020010151101561151b576040517f08c379a00000000000000000000000000000000000000000000000000000000081526004018080602001828103825260298152602001806152c66029913960400191505060405180910390fd5b6115e08686600081811061152b57fe5b9050602002013573ffffffffffffffffffffffffffffffffffffffff16336115c67f00000000000000000000000000000000000000000000000000000000000000008a8a600081811061157a57fe5b9050602002013573ffffffffffffffffffffffffffffffffffffffff168b8b60018181106115a457fe5b9050602002013573ffffffffffffffffffffffffffffffffffffffff166140a6565b856000815181106115d357fe5b6020026020010151614201565b61162c82878780806020026020016040519081016040528093929190818152602001838360200280828437600081840152601f19601f8201169050808301925050505050505030614412565b7f000000000000000000000000000000000000000000000000000000000000000073ffffffffffffffffffffffffffffffffffffffff16632e1a7d4d8360018551038151811061167857fe5b60200260200101516040518263ffffffff1660e01b815260040180828152602001915050600060405180830381600087803b1580156116b657600080fd5b505af11580156116ca573d6000803e3d6000fd5b505050506116ef84836001855103815181106116e257fe5b6020026020010151613c9f565b7f000000000000000000000000000000000000000000000000000000000000000073ffffffffffffffffffffffffffffffffffffffff1663dd20c4a78560016040518363ffffffff1660e01b8152600401808373ffffffffffffffffffffffffffffffffffffffff1673ffffffffffffffffffffffffffffffffffffffff16815260200182815260200192505050600060405180830381600087803b15801561179757600080fd5b505af11580156117ab573d6000803e3d6000fd5b50505050509695505050505050565b60606117e77f000000000000000000000000000000000000000000000000000000000000000084846146bd565b905092915050565b600080600061181f7f00000000000000000000000000000000000000000000000000000000000000008f8f6140a6565b905060008761182e578c611850565b7fffffffffffffffffffffffffffffffffffffffffffffffffffffffffffffffff5b90508173ffffffffffffffffffffffffffffffffffffffff1663d505accf3330848d8c8c8c6040518863ffffffff1660e01b8152600401808873ffffffffffffffffffffffffffffffffffffffff1673ffffffffffffffffffffffffffffffffffffffff1681526020018773ffffffffffffffffffffffffffffffffffffffff1673ffffffffffffffffffffffffffffffffffffffff1681526020018681526020018581526020018460ff1660ff168152602001838152602001828152602001975050505050505050600060405180830381600087803b15801561193357600080fd5b505af1158015611947573d6000803e3d6000fd5b5050505061195a8f8f8f8f8f8f8f612a91565b809450819550505050509b509b9950505050505050505050565b606081428110156119ed576040517f08c379a00000000000000000000000000000000000000000000000000000000081526004018080602001828103825260168152602001807f53776170696679526f757465723a20455850495245440000000000000000000081525060200191505060405180910390fd5b611a597f000000000000000000000000000000000000000000000000000000000000000089888880806020026020016040519081016040528093929190818152602001838360200280828437600081840152601f19601f82011690508083019250505050505050613f2e565b91508682600184510381518110611a6c57fe5b60200260200101511015611acb576040517f08c379a00000000000000000000000000000000000000000000000000000000081526004018080602001828103825260298152602001806152c66029913960400191505060405180910390fd5b611b9086866000818110611adb57fe5b9050602002013573ffffffffffffffffffffffffffffffffffffffff1633611b767f00000000000000000000000000000000000000000000000000000000000000008a8a6000818110611b2a57fe5b9050602002013573ffffffffffffffffffffffffffffffffffffffff168b8b6001818110611b5457fe5b9050602002013573ffffffffffffffffffffffffffffffffffffffff166140a6565b85600081518110611b8357fe5b6020026020010151614201565b7f000000000000000000000000000000000000000000000000000000000000000073ffffffffffffffffffffffffffffffffffffffff1663dd20c4a78560016040518363ffffffff1660e01b8152600401808373ffffffffffffffffffffffffffffffffffffffff1673ffffffffffffffffffffffffffffffffffffffff16815260200182815260200192505050600060405180830381600087803b158015611c3857600080fd5b505af1158015611c4c573d6000803e3d6000fd5b50505050611c9c82878780806020026020016040519081016040528093929190818152602001838360200280828437600081840152601f19601f8201169050808301925050505050505086614412565b509695505050505050565b60608142811015611d20576040517f08c379a00000000000000000000000000000000000000000000000000000000081526004018080602001828103825260168152602001807f53776170696679526f757465723a20455850495245440000000000000000000081525060200191505060405180910390fd5b7f000000000000000000000000000000000000000000000000000000000000000073ffffffffffffffffffffffffffffffffffffffff16868660018989905003818110611d6957fe5b9050602002013573ffffffffffffffffffffffffffffffffffffffff1673ffffffffffffffffffffffffffffffffffffffff1614611e0f576040517f08c379a000000000000000000000000000000000000000000000000000000000815260040180806020018281038252601b8152602001807f53776170696679526f757465723a20494e56414c49445f50415448000000000081525060200191505060405180910390fd5b611e7b7f000000000000000000000000000000000000000000000000000000000000000089888880806020026020016040519081016040528093929190818152602001838360200280828437600081840152601f19601f820116905080830192505050505050506146bd565b91508682600081518110611e8b57fe5b60200260200101511115611eea576040517f08c379a000000000000000000000000000000000000000000000000000000000815260040180806020018281038252602581526020018061527d6025913960400191505060405180910390fd5b611faf86866000818110611efa57fe5b9050602002013573ffffffffffffffffffffffffffffffffffffffff1633611f957f00000000000000000000000000000000000000000000000000000000000000008a8a6000818110611f4957fe5b9050602002013573ffffffffffffffffffffffffffffffffffffffff168b8b6001818110611f7357fe5b9050602002013573ffffffffffffffffffffffffffffffffffffffff166140a6565b85600081518110611fa257fe5b6020026020010151614201565b7f000000000000000000000000000000000000000000000000000000000000000073ffffffffffffffffffffffffffffffffffffffff1663dd20c4a78560016040518363ffffffff1660e01b8152600401808373ffffffffffffffffffffffffffffffffffffffff1673ffffffffffffffffffffffffffffffffffffffff16815260200182815260200192505050600060405180830381600087803b15801561205757600080fd5b505af115801561206b573d6000803e3d6000fd5b505050506120bb82878780806020026020016040519081016040528093929190818152602001838360200280828437600081840152601f19601f8201169050808301925050505050505030614412565b7f000000000000000000000000000000000000000000000000000000000000000073ffffffffffffffffffffffffffffffffffffffff16632e1a7d4d8360018551038151811061210757fe5b60200260200101516040518263ffffffff1660e01b815260040180828152602001915050600060405180830381600087803b15801561214557600080fd5b505af1158015612159573d6000803e3d6000fd5b5050505061217e848360018551038151811061217157fe5b6020026020010151613c9f565b509695505050505050565b60608142811015612202576040517f08c379a00000000000000000000000000000000000000000000000000000000081526004018080602001828103825260168152602001807f53776170696679526f757465723a20455850495245440000000000000000000081525060200191505060405180910390fd5b7f000000000000000000000000000000000000000000000000000000000000000073ffffffffffffffffffffffffffffffffffffffff168686600081811061224657fe5b9050602002013573ffffffffffffffffffffffffffffffffffffffff1673ffffffffffffffffffffffffffffffffffffffff16146122ec576040517f08c379a000000000000000000000000000000000000000000000000000000000815260040180806020018281038252601b8152602001807f53776170696679526f757465723a20494e56414c49445f50415448000000000081525060200191505060405180910390fd5b6123587f000000000000000000000000000000000000000000000000000000000000000034888880806020026020016040519081016040528093929190818152602001838360200280828437600081840152601f19601f82011690508083019250505050505050613f2e565b9150868260018451038151811061236b57fe5b602002602001015110156123ca576040517f08c379a00000000000000000000000000000000000000000000000000000000081526004018080602001828103825260298152602001806152c66029913960400191505060405180910390fd5b7f000000000000000000000000000000000000000000000000000000000000000073ffffffffffffffffffffffffffffffffffffffff1663d0e30db08360008151811061241357fe5b60200260200101516040518263ffffffff1660e01b81526004016000604051808303818588803b15801561244657600080fd5b505af115801561245a573d6000803e3d6000fd5b50505050507f000000000000000000000000000000000000000000000000000000000000000073ffffffffffffffffffffffffffffffffffffffff1663a9059cbb6125187f0000000000000000000000000000000000000000000000000000000000000000898960008181106124cc57fe5b9050602002013573ffffffffffffffffffffffffffffffffffffffff168a8a60018181106124f657fe5b9050602002013573ffffffffffffffffffffffffffffffffffffffff166140a6565b8460008151811061252557fe5b60200260200101516040518363ffffffff1660e01b8152600401808373ffffffffffffffffffffffffffffffffffffffff1673ffffffffffffffffffffffffffffffffffffffff16815260200182815260200192505050602060405180830381600087803b15801561259657600080fd5b505af11580156125aa573d6000803e3d6000fd5b505050506040513d60208110156125c057600080fd5b81019080805190602001909291905050506125d757fe5b7f000000000000000000000000000000000000000000000000000000000000000073ffffffffffffffffffffffffffffffffffffffff1663dd20c4a78560016040518363ffffffff1660e01b8152600401808373ffffffffffffffffffffffffffffffffffffffff1673ffffffffffffffffffffffffffffffffffffffff16815260200182815260200192505050600060405180830381600087803b15801561267f57600080fd5b505af1158015612693573d6000803e3d6000fd5b505050506126e382878780806020026020016040519081016040528093929190818152602001838360200280828437600081840152601f19601f8201169050808301925050505050505086614412565b5095945050505050565b60006126fa84848461483d565b90509392505050565b6060814281101561277c576040517f08c379a00000000000000000000000000000000000000000000000000000000081526004018080602001828103825260168152602001807f53776170696679526f757465723a20455850495245440000000000000000000081525060200191505060405180910390fd5b6127e87f000000000000000000000000000000000000000000000000000000000000000089888880806020026020016040519081016040528093929190818152602001838360200280828437600081840152601f19601f820116905080830192505050505050506146bd565b915086826000815181106127f857fe5b60200260200101511115612857576040517f08c379a000000000000000000000000000000000000000000000000000000000815260040180806020018281038252602581526020018061527d6025913960400191505060405180910390fd5b61291c8686600081811061286757fe5b9050602002013573ffffffffffffffffffffffffffffffffffffffff16336129027f00000000000000000000000000000000000000000000000000000000000000008a8a60008181106128b657fe5b9050602002013573ffffffffffffffffffffffffffffffffffffffff168b8b60018181106128e057fe5b9050602002013573ffffffffffffffffffffffffffffffffffffffff166140a6565b8560008151811061290f57fe5b6020026020010151614201565b7f000000000000000000000000000000000000000000000000000000000000000073ffffffffffffffffffffffffffffffffffffffff1663dd20c4a78560016040518363ffffffff1660e01b8152600401808373ffffffffffffffffffffffffffffffffffffffff1673ffffffffffffffffffffffffffffffffffffffff16815260200182815260200192505050600060405180830381600087803b1580156129c457600080fd5b505af11580156129d8573d6000803e3d6000fd5b50505050612a2882878780806020026020016040519081016040528093929190818152602001838360200280828437600081840152601f19601f8201169050808301925050505050505086614412565b509695505050505050565b7f000000000000000000000000000000000000000000000000000000000000000081565b6000612a6484848461497a565b90509392505050565b7f000000000000000000000000000000000000000000000000000000000000000081565b6000808242811015612b0b576040517f08c379a00000000000000000000000000000000000000000000000000000000081526004018080602001828103825260168152602001807f53776170696679526f757465723a20455850495245440000000000000000000081525060200191505060405180910390fd5b6000612b387f00000000000000000000000000000000000000000000000000000000000000008c8c6140a6565b90508073ffffffffffffffffffffffffffffffffffffffff166323b872dd33838c6040518463ffffffff1660e01b8152600401808473ffffffffffffffffffffffffffffffffffffffff1673ffffffffffffffffffffffffffffffffffffffff1681526020018373ffffffffffffffffffffffffffffffffffffffff1673ffffffffffffffffffffffffffffffffffffffff1681526020018281526020019350505050602060405180830381600087803b158015612bf557600080fd5b505af1158015612c09573d6000803e3d6000fd5b505050506040513d6020811015612c1f57600080fd5b8101908080519060200190929190505050506000808273ffffffffffffffffffffffffffffffffffffffff166389afcb44896040518263ffffffff1660e01b8152600401808273ffffffffffffffffffffffffffffffffffffffff1673ffffffffffffffffffffffffffffffffffffffff1681526020019150506040805180830381600087803b158015612cb257600080fd5b505af1158015612cc6573d6000803e3d6000fd5b505050506040513d6040811015612cdc57600080fd5b810190808051906020019092919080519060200190929190505050915091506000612d078e8e614a5e565b5090508073ffffffffffffffffffffffffffffffffffffffff168e73ffffffffffffffffffffffffffffffffffffffff1614612d44578183612d47565b82825b80975081985050508a871015612da8576040517f08c379a00000000000000000000000000000000000000000000000000000000081526004018080602001828103825260248152602001806152ef6024913960400191505060405180910390fd5b89861015612e01576040517f08c379a00000000000000000000000000000000000000000000000000000000081526004018080602001828103825260248152602001806152a26024913960400191505060405180910390fd5b505050505097509795505050505050565b7f000000000000000000000000000000000000000000000000000000000000000081565b6060612e637f00000000000000000000000000000000000000000000000000000000000000008484613f2e565b905092915050565b6000806000612ebb7f00000000000000000000000000000000000000000000000000000000000000008e7f00000000000000000000000000000000000000000000000000000000000000006140a6565b9050600087612eca578c612eec565b7fffffffffffffffffffffffffffffffffffffffffffffffffffffffffffffffff5b90508173ffffffffffffffffffffffffffffffffffffffff1663d505accf3330848d8c8c8c6040518863ffffffff1660e01b8152600401808873ffffffffffffffffffffffffffffffffffffffff1673ffffffffffffffffffffffffffffffffffffffff1681526020018773ffffffffffffffffffffffffffffffffffffffff1673ffffffffffffffffffffffffffffffffffffffff1681526020018681526020018581526020018460ff1660ff168152602001838152602001828152602001975050505050505050600060405180830381600087803b158015612fcf57600080fd5b505af1158015612fe3573d6000803e3d6000fd5b50505050612ff58e8e8e8e8e8e611162565b809450819550505050509a509a98505050505050505050565b6000806000834281101561308a576040517f08c379a00000000000000000000000000000000000000000000000000000000081526004018080602001828103825260168152602001807f53776170696679526f757465723a20455850495245440000000000000000000081525060200191505060405180910390fd5b6130988c8c8c8c8c8c614bd5565b809450819550505060006130cd7f00000000000000000000000000000000000000000000000000000000000000008e8e6140a6565b90506130db8d338388614201565b6130e78c338387614201565b8073ffffffffffffffffffffffffffffffffffffffff16636a627842886040518263ffffffff1660e01b8152600401808273ffffffffffffffffffffffffffffffffffffffff1673ffffffffffffffffffffffffffffffffffffffff168152602001915050602060405180830381600087803b15801561316657600080fd5b505af115801561317a573d6000803e3d6000fd5b505050506040513d602081101561319057600080fd5b810190808051906020019092919050505092505050985098509895505050505050565b6000806000834281101561322f576040517f08c379a00000000000000000000000000000000000000000000000000000000081526004018080602001828103825260168152602001807f53776170696679526f757465723a20455850495245440000000000000000000081525060200191505060405180910390fd5b61325d8a7f00000000000000000000000000000000000000000000000000000000000000008b348c8c614bd5565b809450819550505060006132b27f00000000000000000000000000000000000000000000000000000000000000008c7f00000000000000000000000000000000000000000000000000000000000000006140a6565b90506132c08b338388614201565b7f000000000000000000000000000000000000000000000000000000000000000073ffffffffffffffffffffffffffffffffffffffff1663d0e30db0856040518263ffffffff1660e01b81526004016000604051808303818588803b15801561332857600080fd5b505af115801561333c573d6000803e3d6000fd5b50505050507f000000000000000000000000000000000000000000000000000000000000000073ffffffffffffffffffffffffffffffffffffffff1663a9059cbb82866040518363ffffffff1660e01b8152600401808373ffffffffffffffffffffffffffffffffffffffff1673ffffffffffffffffffffffffffffffffffffffff16815260200182815260200192505050602060405180830381600087803b1580156133e857600080fd5b505af11580156133fc573d6000803e3d6000fd5b505050506040513d602081101561341257600080fd5b810190808051906020019092919050505061342957fe5b8073ffffffffffffffffffffffffffffffffffffffff16636a627842886040518263ffffffff1660e01b8152600401808273ffffffffffffffffffffffffffffffffffffffff1673ffffffffffffffffffffffffffffffffffffffff168152602001915050602060405180830381600087803b1580156134a857600080fd5b505af11580156134bc573d6000803e3d6000fd5b505050506040513d60208110156134d257600080fd5b81019080805190602001909291905050509250833411156134fa576134f933853403613c9f565b5b505096509650969350505050565b60608142811015613581576040517f08c379a00000000000000000000000000000000000000000000000000000000081526004018080602001828103825260168152602001807f53776170696679526f757465723a20455850495245440000000000000000000081525060200191505060405180910390fd5b7f000000000000000000000000000000000000000000000000000000000000000073ffffffffffffffffffffffffffffffffffffffff16868660008181106135c557fe5b9050602002013573ffffffffffffffffffffffffffffffffffffffff1673ffffffffffffffffffffffffffffffffffffffff161461366b576040517f08c379a000000000000000000000000000000000000000000000000000000000815260040180806020018281038252601b8152602001807f53776170696679526f757465723a20494e56414c49445f50415448000000000081525060200191505060405180910390fd5b6136d77f000000000000000000000000000000000000000000000000000000000000000088888880806020026020016040519081016040528093929190818152602001838360200280828437600081840152601f19601f820116905080830192505050505050506146bd565b915034826000815181106136e757fe5b60200260200101511115613746576040517f08c379a000000000000000000000000000000000000000000000000000000000815260040180806020018281038252602581526020018061527d6025913960400191505060405180910390fd5b7f000000000000000000000000000000000000000000000000000000000000000073ffffffffffffffffffffffffffffffffffffffff1663d0e30db08360008151811061378f57fe5b60200260200101516040518263ffffffff1660e01b81526004016000604051808303818588803b1580156137c257600080fd5b505af11580156137d6573d6000803e3d6000fd5b50505050507f000000000000000000000000000000000000000000000000000000000000000073ffffffffffffffffffffffffffffffffffffffff1663a9059cbb6138947f00000000000000000000000000000000000000000000000000000000000000008989600081811061384857fe5b9050602002013573ffffffffffffffffffffffffffffffffffffffff168a8a600181811061387257fe5b9050602002013573ffffffffffffffffffffffffffffffffffffffff166140a6565b846000815181106138a157fe5b60200260200101516040518363ffffffff1660e01b8152600401808373ffffffffffffffffffffffffffffffffffffffff1673ffffffffffffffffffffffffffffffffffffffff16815260200182815260200192505050602060405180830381600087803b15801561391257600080fd5b505af1158015613926573d6000803e3d6000fd5b505050506040513d602081101561393c57600080fd5b810190808051906020019092919050505061395357fe5b61399f82878780806020026020016040519081016040528093929190818152602001838360200280828437600081840152601f19601f8201169050808301925050505050505086614412565b816000815181106139ac57fe5b60200260200101513411156139dc576139db33836000815181106139cc57fe5b60200260200101513403613c9f565b5b7f000000000000000000000000000000000000000000000000000000000000000073ffffffffffffffffffffffffffffffffffffffff1663dd20c4a78560016040518363ffffffff1660e01b8152600401808373ffffffffffffffffffffffffffffffffffffffff1673ffffffffffffffffffffffffffffffffffffffff16815260200182815260200192505050600060405180830381600087803b158015613a8457600080fd5b505af1158015613a98573d6000803e3d6000fd5b505050505095945050505050565b600060608473ffffffffffffffffffffffffffffffffffffffff1663a9059cbb8585604051602401808373ffffffffffffffffffffffffffffffffffffffff1673ffffffffffffffffffffffffffffffffffffffff168152602001828152602001925050506040516020818303038152906040529060e01b6020820180517bffffffffffffffffffffffffffffffffffffffffffffffffffffffff83818316178352505050506040518082805190602001908083835b60208310613b7f5780518252602082019150602081019050602083039250613b5c565b6001836020036101000a0380198251168184511680821785525050505050509050019150506000604051808303816000865af19150503d8060008114613be1576040519150601f19603f3d011682016040523d82523d6000602084013e613be6565b606091505b5091509150818015613c265750600081511480613c255750808060200190516020811015613c1357600080fd5b81019080805190602001909291905050505b5b613c98576040517f08c379a000000000000000000000000000000000000000000000000000000000815260040180806020018281038252601f8152602001807f5472616e7366657248656c7065723a205452414e534645525f4641494c45440081525060200191505060405180910390fd5b5050505050565b60008273ffffffffffffffffffffffffffffffffffffffff1682600067ffffffffffffffff81118015613cd157600080fd5b506040519080825280601f01601f191660200182016040528015613d045781602001600182028036833780820191505090505b506040518082805190602001908083835b60208310613d385780518252602082019150602081019050602083039250613d15565b6001836020036101000a03801982511681845116808217855250505050505090500191505060006040518083038185875af1925050503d8060008114613d9a576040519150601f19603f3d011682016040523d82523d6000602084013e613d9f565b606091505b5050905080613df9576040517f08c379a000000000000000000000000000000000000000000000000000000000815260040180806020018281038252602381526020018061533d6023913960400191505060405180910390fd5b505050565b6000808411613e58576040517f08c379a00000000000000000000000000000000000000000000000000000000081526004018080602001828103825260298152602001806153606029913960400191505060405180910390fd5b600083118015613e685750600082115b613ebd576040517f08c379a00000000000000000000000000000000000000000000000000000000081526004018080602001828103825260268152602001806153d06026913960400191505060405180910390fd5b6000613ed46103e686614f8990919063ffffffff16565b90506000613eeb8483614f8990919063ffffffff16565b90506000613f1683613f086103e889614f8990919063ffffffff16565b61501e90919063ffffffff16565b9050808281613f2157fe5b0493505050509392505050565b6060600282511015613fa8576040517f08c379a000000000000000000000000000000000000000000000000000000000815260040180806020018281038252601c8152602001807f537761706966794c6962726172793a20494e56414c49445f504154480000000081525060200191505060405180910390fd5b815167ffffffffffffffff81118015613fc057600080fd5b50604051908082528060200260200182016040528015613fef5781602001602082028036833780820191505090505b509050828160008151811061400057fe5b60200260200101818152505060005b600183510381101561409e576000806140528786858151811061402e57fe5b602002602001015187600187018151811061404557fe5b60200260200101516150a1565b9150915061407484848151811061406557fe5b60200260200101518383613dfe565b84600185018151811061408357fe5b6020026020010181815250505050808060010191505061400f565b509392505050565b60008060006140b58585614a5e565b91509150858282604051602001808373ffffffffffffffffffffffffffffffffffffffff1673ffffffffffffffffffffffffffffffffffffffff1660601b81526014018273ffffffffffffffffffffffffffffffffffffffff1673ffffffffffffffffffffffffffffffffffffffff1660601b8152601401925050506040516020818303038152906040528051906020012060405160200180807fff000000000000000000000000000000000000000000000000000000000000008152506001018373ffffffffffffffffffffffffffffffffffffffff1673ffffffffffffffffffffffffffffffffffffffff1660601b8152601401828152602001807ff35935936a092216053b1d505c720f771073256438823a04dd5f014da3020ac5815250602001925050506040516020818303038152906040528051906020012060001c925050509392505050565b600060608573ffffffffffffffffffffffffffffffffffffffff166323b872dd868686604051602401808473ffffffffffffffffffffffffffffffffffffffff1673ffffffffffffffffffffffffffffffffffffffff1681526020018373ffffffffffffffffffffffffffffffffffffffff1673ffffffffffffffffffffffffffffffffffffffff16815260200182815260200193505050506040516020818303038152906040529060e01b6020820180517bffffffffffffffffffffffffffffffffffffffffffffffffffffffff83818316178352505050506040518082805190602001908083835b6020831061430e57805182526020820191506020810190506020830392506142eb565b6001836020036101000a0380198251168184511680821785525050505050509050019150506000604051808303816000865af19150503d8060008114614370576040519150601f19603f3d011682016040523d82523d6000602084013e614375565b606091505b50915091508180156143b557506000815114806143b457508080602001905160208110156143a257600080fd5b81019080805190602001909291905050505b5b61440a576040517f08c379a00000000000000000000000000000000000000000000000000000000081526004018080602001828103825260248152602001806153896024913960400191505060405180910390fd5b505050505050565b60005b60018351038110156146b75760008084838151811061443057fe5b602002602001015185600185018151811061444757fe5b602002602001015191509150600061445f8383614a5e565b509050600087600186018151811061447357fe5b602002602001015190506000808373ffffffffffffffffffffffffffffffffffffffff168673ffffffffffffffffffffffffffffffffffffffff16146144bb578260006144bf565b6000835b91509150600060028a510388106144d65788614518565b6145177f0000000000000000000000000000000000000000000000000000000000000000878c60028c018151811061450a57fe5b60200260200101516140a6565b5b90506145457f000000000000000000000000000000000000000000000000000000000000000088886140a6565b73ffffffffffffffffffffffffffffffffffffffff1663022c0d9f848484600067ffffffffffffffff8111801561457b57600080fd5b506040519080825280601f01601f1916602001820160405280156145ae5781602001600182028036833780820191505090505b506040518563ffffffff1660e01b8152600401808581526020018481526020018373ffffffffffffffffffffffffffffffffffffffff1673ffffffffffffffffffffffffffffffffffffffff16815260200180602001828103825283818151815260200191508051906020019080838360005b8381101561463c578082015181840152602081019050614621565b50505050905090810190601f1680156146695780820380516001836020036101000a031916815260200191505b5095505050505050600060405180830381600087803b15801561468b57600080fd5b505af115801561469f573d6000803e3d6000fd5b50505050505050505050508080600101915050614415565b50505050565b6060600282511015614737576040517f08c379a000000000000000000000000000000000000000000000000000000000815260040180806020018281038252601c8152602001807f537761706966794c6962726172793a20494e56414c49445f504154480000000081525060200191505060405180910390fd5b815167ffffffffffffffff8111801561474f57600080fd5b5060405190808252806020026020018201604052801561477e5781602001602082028036833780820191505090505b509050828160018351038151811061479257fe5b6020026020010181815250506000600183510390505b6000811115614835576000806147e8878660018603815181106147c757fe5b60200260200101518786815181106147db57fe5b60200260200101516150a1565b9150915061480a8484815181106147fb57fe5b6020026020010151838361483d565b84600185038151811061481957fe5b60200260200101818152505050508080600190039150506147a8565b509392505050565b6000808411614897576040517f08c379a000000000000000000000000000000000000000000000000000000000815260040180806020018281038252602a815260200180615313602a913960400191505060405180910390fd5b6000831180156148a75750600082115b6148fc576040517f08c379a00000000000000000000000000000000000000000000000000000000081526004018080602001828103825260268152602001806153d06026913960400191505060405180910390fd5b60006149256103e86149178787614f8990919063ffffffff16565b614f8990919063ffffffff16565b905060006149506103e661494288876151d690919063ffffffff16565b614f8990919063ffffffff16565b905061496f600182848161496057fe5b0461501e90919063ffffffff16565b925050509392505050565b60008084116149d4576040517f08c379a000000000000000000000000000000000000000000000000000000000815260040180806020018281038252602381526020018061525a6023913960400191505060405180910390fd5b6000831180156149e45750600082115b614a39576040517f08c379a00000000000000000000000000000000000000000000000000000000081526004018080602001828103825260268152602001806153d06026913960400191505060405180910390fd5b82614a4d8386614f8990919063ffffffff16565b81614a5457fe5b0490509392505050565b6000808273ffffffffffffffffffffffffffffffffffffffff168473ffffffffffffffffffffffffffffffffffffffff161415614ae6576040517f08c379a00000000000000000000000000000000000000000000000000000000081526004018080602001828103825260238152602001806153ad6023913960400191505060405180910390fd5b8273ffffffffffffffffffffffffffffffffffffffff168473ffffffffffffffffffffffffffffffffffffffff1610614b20578284614b23565b83835b8092508193505050600073ffffffffffffffffffffffffffffffffffffffff168273ffffffffffffffffffffffffffffffffffffffff161415614bce576040517f08c379a000000000000000000000000000000000000000000000000000000000815260040180806020018281038252601c8152602001807f537761706966794c6962726172793a205a45524f5f414444524553530000000081525060200191505060405180910390fd5b9250929050565b600080600073ffffffffffffffffffffffffffffffffffffffff167f000000000000000000000000000000000000000000000000000000000000000073ffffffffffffffffffffffffffffffffffffffff1663e6a439058a8a6040518363ffffffff1660e01b8152600401808373ffffffffffffffffffffffffffffffffffffffff1673ffffffffffffffffffffffffffffffffffffffff1681526020018273ffffffffffffffffffffffffffffffffffffffff1673ffffffffffffffffffffffffffffffffffffffff1681526020019250505060206040518083038186803b158015614cc157600080fd5b505afa158015614cd5573d6000803e3d6000fd5b505050506040513d6020811015614ceb57600080fd5b810190808051906020019092919050505073ffffffffffffffffffffffffffffffffffffffff161415614e28577f000000000000000000000000000000000000000000000000000000000000000073ffffffffffffffffffffffffffffffffffffffff1663c9c6539689896040518363ffffffff1660e01b8152600401808373ffffffffffffffffffffffffffffffffffffffff1673ffffffffffffffffffffffffffffffffffffffff1681526020018273ffffffffffffffffffffffffffffffffffffffff1673ffffffffffffffffffffffffffffffffffffffff16815260200192505050602060405180830381600087803b158015614deb57600080fd5b505af1158015614dff573d6000803e3d6000fd5b505050506040513d6020811015614e1557600080fd5b8101908080519060200190929190505050505b600080614e567f00000000000000000000000000000000000000000000000000000000000000008b8b6150a1565b91509150600082148015614e6a5750600081145b15614e7e5787878094508195505050614f7c565b6000614e8b89848461497a565b9050878111614efc5785811015614eed576040517f08c379a00000000000000000000000000000000000000000000000000000000081526004018080602001828103825260248152602001806152a26024913960400191505060405180910390fd5b88818095508196505050614f7a565b6000614f0989848661497a565b905089811115614f1557fe5b87811015614f6e576040517f08c379a00000000000000000000000000000000000000000000000000000000081526004018080602001828103825260248152602001806152ef6024913960400191505060405180910390fd5b80898096508197505050505b505b5050965096945050505050565b600080821480614fa65750828283850292508281614fa357fe5b04145b615018576040517f08c379a00000000000000000000000000000000000000000000000000000000081526004018080602001828103825260148152602001807f64732d6d6174682d6d756c2d6f766572666c6f7700000000000000000000000081525060200191505060405180910390fd5b92915050565b600082828401915081101561509b576040517f08c379a00000000000000000000000000000000000000000000000000000000081526004018080602001828103825260148152602001807f64732d6d6174682d6164642d6f766572666c6f7700000000000000000000000081525060200191505060405180910390fd5b92915050565b60008060006150b08585614a5e565b5090506150be8686866140a6565b506000806150cd8888886140a6565b73ffffffffffffffffffffffffffffffffffffffff16630902f1ac6040518163ffffffff1660e01b815260040160606040518083038186803b15801561511257600080fd5b505afa158015615126573d6000803e3d6000fd5b505050506040513d606081101561513c57600080fd5b81019080805190602001909291908051906020019092919080519060200190929190505050506dffffffffffffffffffffffffffff1691506dffffffffffffffffffffffffffff1691508273ffffffffffffffffffffffffffffffffffffffff168773ffffffffffffffffffffffffffffffffffffffff16146151c05780826151c3565b81815b8095508196505050505050935093915050565b6000828284039150811115615253576040517f08c379a00000000000000000000000000000000000000000000000000000000081526004018080602001828103825260158152602001807f64732d6d6174682d7375622d756e646572666c6f77000000000000000000000081525060200191505060405180910390fd5b9291505056fe537761706966794c6962726172793a20494e53554646494349454e545f414d4f554e5453776170696679526f757465723a204558434553534956455f494e5055545f414d4f554e5453776170696679526f757465723a20494e53554646494349454e545f425f414d4f554e5453776170696679526f757465723a20494e53554646494349454e545f4f55545055545f414d4f554e5453776170696679526f757465723a20494e53554646494349454e545f415f414d4f554e54537761706966794c6962726172793a20494e53554646494349454e545f4f55545055545f414d4f554e545472616e7366657248656c7065723a204554485f5452414e534645525f4641494c4544537761706966794c6962726172793a20494e53554646494349454e545f494e5055545f414d4f554e545472616e7366657248656c7065723a205452414e534645525f46524f4d5f4641494c4544537761706966794c6962726172793a204944454e544943414c5f414444524553534553537761706966794c6962726172793a20494e53554646494349454e545f4c4951554944495459a264697066735822122080364e8d404981097efe37d3bd0a7ee78d30364ca3c5ba12e79038c39ac03f2d64736f6c63430006060033",
  "immutableReferences": {
    "420": [
      {
        "length": 32,
        "start": 5186
      },
      {
        "length": 32,
        "start": 5454
      },
      {
        "length": 32,
        "start": 6081
      },
      {
        "length": 32,
        "start": 6137
      },
      {
        "length": 32,
        "start": 6642
      },
      {
        "length": 32,
        "start": 6910
      },
      {
        "length": 32,
        "start": 7700
      },
      {
        "length": 32,
        "start": 7965
      },
      {
        "length": 32,
        "start": 8945
      },
      {
        "length": 32,
        "start": 9376
      },
      {
        "length": 32,
        "start": 10113
      },
      {
        "length": 32,
        "start": 10378
      },
      {
        "length": 32,
        "start": 11026
      },
      {
        "length": 32,
        "start": 11796
      },
      {
        "length": 32,
        "start": 11837
      },
      {
        "length": 32,
        "start": 11893
      },
      {
        "length": 32,
        "start": 12455
      },
      {
        "length": 32,
        "start": 12908
      },
      {
        "length": 32,
        "start": 13936
      },
      {
        "length": 32,
        "start": 14364
      },
      {
        "length": 32,
        "start": 17627
      },
      {
        "length": 32,
        "start": 17695
      },
      {
        "length": 32,
        "start": 19442
      },
      {
        "length": 32,
        "start": 19738
      },
      {
        "length": 32,
        "start": 20016
      }
    ],
    "423": [
      {
        "length": 32,
        "start": 298
      },
      {
        "length": 32,
        "start": 4578
      },
      {
        "length": 32,
        "start": 4640
      },
      {
        "length": 32,
        "start": 4944
      },
      {
        "length": 32,
        "start": 5678
      },
      {
        "length": 32,
        "start": 7458
      },
      {
        "length": 32,
        "start": 8381
      },
      {
        "length": 32,
        "start": 8708
      },
      {
        "length": 32,
        "start": 9164
      },
      {
        "length": 32,
        "start": 9313
      },
      {
        "length": 32,
        "start": 10805
      },
      {
        "length": 32,
        "start": 11927
      },
      {
        "length": 32,
        "start": 12853
      },
      {
        "length": 32,
        "start": 12942
      },
      {
        "length": 32,
        "start": 12994
      },
      {
        "length": 32,
        "start": 13123
      },
      {
        "length": 32,
        "start": 13699
      },
      {
        "length": 32,
        "start": 14152
      },
      {
        "length": 32,
        "start": 14301
      }
    ],
    "425": [
      {
        "length": 32,
        "start": 5873
      },
      {
        "length": 32,
        "start": 7058
      },
      {
        "length": 32,
        "start": 8113
      },
      {
        "length": 32,
        "start": 9689
      },
      {
        "length": 32,
        "start": 10526
      },
      {
        "length": 32,
        "start": 10863
      },
      {
        "length": 32,
        "start": 14814
      }
    ]
  },
  "source": "pragma solidity =0.6.6;\r\n\r\nimport '@swapify-official/swapify-core/contracts/interfaces/ISwapifyFactory.sol';\r\nimport './interfaces/ISwapifyLotterySystem.sol';\r\nimport '@uniswap/lib/contracts/libraries/TransferHelper.sol';\r\n\r\nimport './interfaces/ISwapifyRouter02.sol';\r\nimport './libraries/SwapifyLibrary.sol';\r\nimport './libraries/SafeMath.sol';\r\nimport './interfaces/IERC20.sol';\r\nimport './interfaces/IWETH.sol';\r\n\r\ncontract SwapifyRouter is ISwapifyRouter02 {\r\n    using SafeMath for uint256;\r\n\r\n    address public immutable override factory;\r\n    address public immutable override WETH;\r\n    address public immutable lottery;\r\n\r\n    modifier ensure(uint256 deadline) {\r\n        require(deadline >= block.timestamp, 'SwapifyRouter: EXPIRED');\r\n        _;\r\n    }\r\n\r\n    constructor(address _factory, address _WETH, address _lottery) public {\r\n        factory = _factory;\r\n        WETH = _WETH;\r\n        lottery = _lottery;\r\n    }\r\n\r\n    receive() external payable {\r\n        assert(msg.sender == WETH); // only accept ETH via fallback from the WETH contract\r\n    }\r\n\r\n    // **** ADD LIQUIDITY ****\r\n    function _addLiquidity(\r\n        address tokenA,\r\n        address tokenB,\r\n        uint256 amountADesired,\r\n        uint256 amountBDesired,\r\n        uint256 amountAMin,\r\n        uint256 amountBMin\r\n    ) internal virtual returns (uint256 amountA, uint256 amountB) {\r\n        // create the pair if it doesn't exist yet\r\n        if (ISwapifyFactory(factory).getPair(tokenA, tokenB) == address(0)) {\r\n            ISwapifyFactory(factory).createPair(tokenA, tokenB);\r\n        }\r\n        (uint256 reserveA, uint256 reserveB) = SwapifyLibrary.getReserves(factory, tokenA, tokenB);\r\n        if (reserveA == 0 && reserveB == 0) {\r\n            (amountA, amountB) = (amountADesired, amountBDesired);\r\n        } else {\r\n            uint256 amountBOptimal = SwapifyLibrary.quote(amountADesired, reserveA, reserveB);\r\n            if (amountBOptimal <= amountBDesired) {\r\n                require(amountBOptimal >= amountBMin, 'SwapifyRouter: INSUFFICIENT_B_AMOUNT');\r\n                (amountA, amountB) = (amountADesired, amountBOptimal);\r\n            } else {\r\n                uint256 amountAOptimal = SwapifyLibrary.quote(amountBDesired, reserveB, reserveA);\r\n                assert(amountAOptimal <= amountADesired);\r\n                require(amountAOptimal >= amountAMin, 'SwapifyRouter: INSUFFICIENT_A_AMOUNT');\r\n                (amountA, amountB) = (amountAOptimal, amountBDesired);\r\n            }\r\n        }\r\n    }\r\n\r\n    function addLiquidity(\r\n        address tokenA,\r\n        address tokenB,\r\n        uint256 amountADesired,\r\n        uint256 amountBDesired,\r\n        uint256 amountAMin,\r\n        uint256 amountBMin,\r\n        address to,\r\n        uint256 deadline\r\n    )\r\n        external\r\n        virtual\r\n        override\r\n        ensure(deadline)\r\n        returns (\r\n            uint256 amountA,\r\n            uint256 amountB,\r\n            uint256 liquidity\r\n        )\r\n    {\r\n        (amountA, amountB) = _addLiquidity(tokenA, tokenB, amountADesired, amountBDesired, amountAMin, amountBMin);\r\n        address pair = SwapifyLibrary.pairFor(factory, tokenA, tokenB);\r\n        TransferHelper.safeTransferFrom(tokenA, msg.sender, pair, amountA);\r\n        TransferHelper.safeTransferFrom(tokenB, msg.sender, pair, amountB);\r\n        liquidity = ISwapifyPair(pair).mint(to);\r\n    }\r\n\r\n    function addLiquidityETH(\r\n        address token,\r\n        uint256 amountTokenDesired,\r\n        uint256 amountTokenMin,\r\n        uint256 amountETHMin,\r\n        address to,\r\n        uint256 deadline\r\n    )\r\n        external\r\n        payable\r\n        virtual\r\n        override\r\n        ensure(deadline)\r\n        returns (\r\n            uint256 amountToken,\r\n            uint256 amountETH,\r\n            uint256 liquidity\r\n        )\r\n    {\r\n        (amountToken, amountETH) = _addLiquidity(\r\n            token,\r\n            WETH,\r\n            amountTokenDesired,\r\n            msg.value,\r\n            amountTokenMin,\r\n            amountETHMin\r\n        );\r\n        address pair = SwapifyLibrary.pairFor(factory, token, WETH);\r\n        TransferHelper.safeTransferFrom(token, msg.sender, pair, amountToken);\r\n        IWETH(WETH).deposit{value: amountETH}();\r\n        assert(IWETH(WETH).transfer(pair, amountETH));\r\n        liquidity = ISwapifyPair(pair).mint(to);\r\n        // refund dust eth, if any\r\n        if (msg.value > amountETH) TransferHelper.safeTransferETH(msg.sender, msg.value - amountETH);\r\n    }\r\n\r\n    // **** REMOVE LIQUIDITY ****\r\n    function removeLiquidity(\r\n        address tokenA,\r\n        address tokenB,\r\n        uint256 liquidity,\r\n        uint256 amountAMin,\r\n        uint256 amountBMin,\r\n        address to,\r\n        uint256 deadline\r\n    ) public virtual override ensure(deadline) returns (uint256 amountA, uint256 amountB) {\r\n        address pair = SwapifyLibrary.pairFor(factory, tokenA, tokenB);\r\n        ISwapifyPair(pair).transferFrom(msg.sender, pair, liquidity); // send liquidity to pair\r\n        (uint256 amount0, uint256 amount1) = ISwapifyPair(pair).burn(to);\r\n        (address token0, ) = SwapifyLibrary.sortTokens(tokenA, tokenB);\r\n        (amountA, amountB) = tokenA == token0 ? (amount0, amount1) : (amount1, amount0);\r\n        require(amountA >= amountAMin, 'SwapifyRouter: INSUFFICIENT_A_AMOUNT');\r\n        require(amountB >= amountBMin, 'SwapifyRouter: INSUFFICIENT_B_AMOUNT');\r\n    }\r\n\r\n    function removeLiquidityETH(\r\n        address token,\r\n        uint256 liquidity,\r\n        uint256 amountTokenMin,\r\n        uint256 amountETHMin,\r\n        address to,\r\n        uint256 deadline\r\n    ) public virtual override ensure(deadline) returns (uint256 amountToken, uint256 amountETH) {\r\n        (amountToken, amountETH) = removeLiquidity(\r\n            token,\r\n            WETH,\r\n            liquidity,\r\n            amountTokenMin,\r\n            amountETHMin,\r\n            address(this),\r\n            deadline\r\n        );\r\n        TransferHelper.safeTransfer(token, to, amountToken);\r\n        IWETH(WETH).withdraw(amountETH);\r\n        TransferHelper.safeTransferETH(to, amountETH);\r\n    }\r\n\r\n    function removeLiquidityWithPermit(\r\n        address tokenA,\r\n        address tokenB,\r\n        uint256 liquidity,\r\n        uint256 amountAMin,\r\n        uint256 amountBMin,\r\n        address to,\r\n        uint256 deadline,\r\n        bool approveMax,\r\n        uint8 v,\r\n        bytes32 r,\r\n        bytes32 s\r\n    ) external virtual override returns (uint256 amountA, uint256 amountB) {\r\n        address pair = SwapifyLibrary.pairFor(factory, tokenA, tokenB);\r\n        uint256 value = approveMax ? uint256(-1) : liquidity;\r\n        ISwapifyPair(pair).permit(msg.sender, address(this), value, deadline, v, r, s);\r\n        (amountA, amountB) = removeLiquidity(tokenA, tokenB, liquidity, amountAMin, amountBMin, to, deadline);\r\n    }\r\n\r\n    function removeLiquidityETHWithPermit(\r\n        address token,\r\n        uint256 liquidity,\r\n        uint256 amountTokenMin,\r\n        uint256 amountETHMin,\r\n        address to,\r\n        uint256 deadline,\r\n        bool approveMax,\r\n        uint8 v,\r\n        bytes32 r,\r\n        bytes32 s\r\n    ) external virtual override returns (uint256 amountToken, uint256 amountETH) {\r\n        address pair = SwapifyLibrary.pairFor(factory, token, WETH);\r\n        uint256 value = approveMax ? uint256(-1) : liquidity;\r\n        ISwapifyPair(pair).permit(msg.sender, address(this), value, deadline, v, r, s);\r\n        (amountToken, amountETH) = removeLiquidityETH(token, liquidity, amountTokenMin, amountETHMin, to, deadline);\r\n    }\r\n\r\n    // **** REMOVE LIQUIDITY (supporting fee-on-transfer tokens) ****\r\n\r\n    // **** SWAP ****\r\n    // requires the initial amount to have already been sent to the first pair\r\n    function _swap(\r\n        uint256[] memory amounts,\r\n        address[] memory path,\r\n        address _to\r\n    ) internal virtual {\r\n        for (uint256 i; i < path.length - 1; i++) {\r\n            (address input, address output) = (path[i], path[i + 1]);\r\n            (address token0, ) = SwapifyLibrary.sortTokens(input, output);\r\n            uint256 amountOut = amounts[i + 1];\r\n            (uint256 amount0Out, uint256 amount1Out) = input == token0\r\n                ? (uint256(0), amountOut)\r\n                : (amountOut, uint256(0));\r\n            address to = i < path.length - 2 ? SwapifyLibrary.pairFor(factory, output, path[i + 2]) : _to;\r\n            ISwapifyPair(SwapifyLibrary.pairFor(factory, input, output)).swap(amount0Out, amount1Out, to, new bytes(0));\r\n        }\r\n    }\r\n\r\n    function swapExactTokensForTokens(\r\n        uint256 amountIn,\r\n        uint256 amountOutMin,\r\n        address[] calldata path,\r\n        address to,\r\n        uint256 deadline\r\n    ) external virtual override ensure(deadline) returns (uint256[] memory amounts) {\r\n        amounts = SwapifyLibrary.getAmountsOut(factory, amountIn, path);\r\n        require(amounts[amounts.length - 1] >= amountOutMin, 'SwapifyRouter: INSUFFICIENT_OUTPUT_AMOUNT');\r\n        TransferHelper.safeTransferFrom(\r\n            path[0],\r\n            msg.sender,\r\n            SwapifyLibrary.pairFor(factory, path[0], path[1]),\r\n            amounts[0]\r\n        );\r\n        ISwapifyLotterySystem(lottery).mintTickets(to, 1);\r\n        _swap(amounts, path, to);\r\n    }\r\n\r\n    function swapTokensForExactTokens(\r\n        uint256 amountOut,\r\n        uint256 amountInMax,\r\n        address[] calldata path,\r\n        address to,\r\n        uint256 deadline\r\n    ) external virtual override ensure(deadline) returns (uint256[] memory amounts) {\r\n        amounts = SwapifyLibrary.getAmountsIn(factory, amountOut, path);\r\n        require(amounts[0] <= amountInMax, 'SwapifyRouter: EXCESSIVE_INPUT_AMOUNT');\r\n        TransferHelper.safeTransferFrom(\r\n            path[0],\r\n            msg.sender,\r\n            SwapifyLibrary.pairFor(factory, path[0], path[1]),\r\n            amounts[0]\r\n        );\r\n        ISwapifyLotterySystem(lottery).mintTickets(to, 1);\r\n        _swap(amounts, path, to);\r\n    }\r\n\r\n    function swapExactETHForTokens(\r\n        uint256 amountOutMin,\r\n        address[] calldata path,\r\n        address to,\r\n        uint256 deadline\r\n    ) external payable virtual override ensure(deadline) returns (uint256[] memory amounts) {\r\n        require(path[0] == WETH, 'SwapifyRouter: INVALID_PATH');\r\n        amounts = SwapifyLibrary.getAmountsOut(factory, msg.value, path);\r\n        require(amounts[amounts.length - 1] >= amountOutMin, 'SwapifyRouter: INSUFFICIENT_OUTPUT_AMOUNT');\r\n        IWETH(WETH).deposit{value: amounts[0]}();\r\n        assert(IWETH(WETH).transfer(SwapifyLibrary.pairFor(factory, path[0], path[1]), amounts[0]));\r\n        ISwapifyLotterySystem(lottery).mintTickets(to, 1);\r\n        _swap(amounts, path, to);\r\n    }\r\n\r\n    function swapTokensForExactETH(\r\n        uint256 amountOut,\r\n        uint256 amountInMax,\r\n        address[] calldata path,\r\n        address to,\r\n        uint256 deadline\r\n    ) external virtual override ensure(deadline) returns (uint256[] memory amounts) {\r\n        require(path[path.length - 1] == WETH, 'SwapifyRouter: INVALID_PATH');\r\n        amounts = SwapifyLibrary.getAmountsIn(factory, amountOut, path);\r\n        require(amounts[0] <= amountInMax, 'SwapifyRouter: EXCESSIVE_INPUT_AMOUNT');\r\n        TransferHelper.safeTransferFrom(\r\n            path[0],\r\n            msg.sender,\r\n            SwapifyLibrary.pairFor(factory, path[0], path[1]),\r\n            amounts[0]\r\n        );\r\n        ISwapifyLotterySystem(lottery).mintTickets(to, 1);\r\n        _swap(amounts, path, address(this));\r\n        IWETH(WETH).withdraw(amounts[amounts.length - 1]);\r\n        TransferHelper.safeTransferETH(to, amounts[amounts.length - 1]);\r\n    }\r\n\r\n    function swapExactTokensForETH(\r\n        uint256 amountIn,\r\n        uint256 amountOutMin,\r\n        address[] calldata path,\r\n        address to,\r\n        uint256 deadline\r\n    ) external virtual override ensure(deadline) returns (uint256[] memory amounts) {\r\n        require(path[path.length - 1] == WETH, 'SwapifyRouter: INVALID_PATH');\r\n        amounts = SwapifyLibrary.getAmountsOut(factory, amountIn, path);\r\n        require(amounts[amounts.length - 1] >= amountOutMin, 'SwapifyRouter: INSUFFICIENT_OUTPUT_AMOUNT');\r\n        TransferHelper.safeTransferFrom(\r\n            path[0],\r\n            msg.sender,\r\n            SwapifyLibrary.pairFor(factory, path[0], path[1]),\r\n            amounts[0]\r\n        );\r\n        _swap(amounts, path, address(this));\r\n        IWETH(WETH).withdraw(amounts[amounts.length - 1]);\r\n        TransferHelper.safeTransferETH(to, amounts[amounts.length - 1]);\r\n        ISwapifyLotterySystem(lottery).mintTickets(to, 1);\r\n    }\r\n\r\n    function swapETHForExactTokens(\r\n        uint256 amountOut,\r\n        address[] calldata path,\r\n        address to,\r\n        uint256 deadline\r\n    ) external payable virtual override ensure(deadline) returns (uint256[] memory amounts) {\r\n        require(path[0] == WETH, 'SwapifyRouter: INVALID_PATH');\r\n        amounts = SwapifyLibrary.getAmountsIn(factory, amountOut, path);\r\n        require(amounts[0] <= msg.value, 'SwapifyRouter: EXCESSIVE_INPUT_AMOUNT');\r\n        IWETH(WETH).deposit{value: amounts[0]}();\r\n        assert(IWETH(WETH).transfer(SwapifyLibrary.pairFor(factory, path[0], path[1]), amounts[0]));\r\n        _swap(amounts, path, to);\r\n        // refund dust eth, if any\r\n        if (msg.value > amounts[0]) TransferHelper.safeTransferETH(msg.sender, msg.value - amounts[0]);\r\n        ISwapifyLotterySystem(lottery).mintTickets(to, 1);\r\n    }\r\n\r\n    // **** SWAP (supporting fee-on-transfer tokens) ****\r\n    // requires the initial amount to have already been sent to the first pair\r\n\r\n    // **** LIBRARY FUNCTIONS ****\r\n    function quote(\r\n        uint256 amountA,\r\n        uint256 reserveA,\r\n        uint256 reserveB\r\n    ) public pure virtual override returns (uint256 amountB) {\r\n        return SwapifyLibrary.quote(amountA, reserveA, reserveB);\r\n    }\r\n\r\n    function getAmountOut(\r\n        uint256 amountIn,\r\n        uint256 reserveIn,\r\n        uint256 reserveOut\r\n    ) public pure virtual override returns (uint256 amountOut) {\r\n        return SwapifyLibrary.getAmountOut(amountIn, reserveIn, reserveOut);\r\n    }\r\n\r\n    function getAmountIn(\r\n        uint256 amountOut,\r\n        uint256 reserveIn,\r\n        uint256 reserveOut\r\n    ) public pure virtual override returns (uint256 amountIn) {\r\n        return SwapifyLibrary.getAmountIn(amountOut, reserveIn, reserveOut);\r\n    }\r\n\r\n    function getAmountsOut(uint256 amountIn, address[] memory path)\r\n        public\r\n        view\r\n        virtual\r\n        override\r\n        returns (uint256[] memory amounts)\r\n    {\r\n        return SwapifyLibrary.getAmountsOut(factory, amountIn, path);\r\n    }\r\n\r\n    function getAmountsIn(uint256 amountOut, address[] memory path)\r\n        public\r\n        view\r\n        virtual\r\n        override\r\n        returns (uint256[] memory amounts)\r\n    {\r\n        return SwapifyLibrary.getAmountsIn(factory, amountOut, path);\r\n    }\r\n}\r\n",
  "sourcePath": "C:/GitHub/Swapify-Periphery/contracts/SwapifyRouter.sol",
  "compiler": {
    "name": "solc",
    "version": "0.6.6+commit.6c089d02.Emscripten.clang"
  },
  "schemaVersion": "3.4.1",
  "updatedAt": "2022-03-21T22:09:11.050Z",
  "networkType": "ethereum",
  "devdoc": {
    "methods": {}
  },
  "userdoc": {
    "methods": {}
  }
}