{
  "contractName": "SwapifyRouter01",
  "abi": [
    {
      "inputs": [
        {
          "internalType": "address",
          "name": "_factory",
          "type": "address"
        },
        {
          "internalType": "address",
          "name": "_WETH",
          "type": "address"
        }
      ],
      "stateMutability": "nonpayable",
      "type": "constructor"
    },
    {
      "anonymous": false,
      "inputs": [
        {
          "indexed": true,
          "internalType": "address",
          "name": "previousOwner",
          "type": "address"
        },
        {
          "indexed": true,
          "internalType": "address",
          "name": "newOwner",
          "type": "address"
        }
      ],
      "name": "OwnershipTransferred",
      "type": "event"
    },
    {
      "inputs": [],
      "name": "WETH",
      "outputs": [
        {
          "internalType": "address",
          "name": "",
          "type": "address"
        }
      ],
      "stateMutability": "view",
      "type": "function"
    },
    {
      "inputs": [
        {
          "internalType": "address",
          "name": "_account",
          "type": "address"
        }
      ],
      "name": "addPermittedAccount",
      "outputs": [],
      "stateMutability": "nonpayable",
      "type": "function"
    },
    {
      "inputs": [],
      "name": "factory",
      "outputs": [
        {
          "internalType": "address",
          "name": "",
          "type": "address"
        }
      ],
      "stateMutability": "view",
      "type": "function"
    },
    {
      "inputs": [],
      "name": "isOwner",
      "outputs": [
        {
          "internalType": "bool",
          "name": "",
          "type": "bool"
        }
      ],
      "stateMutability": "view",
      "type": "function"
    },
    {
      "inputs": [],
      "name": "isPermissible",
      "outputs": [
        {
          "internalType": "bool",
          "name": "",
          "type": "bool"
        }
      ],
      "stateMutability": "view",
      "type": "function"
    },
    {
      "inputs": [],
      "name": "owner",
      "outputs": [
        {
          "internalType": "address",
          "name": "",
          "type": "address"
        }
      ],
      "stateMutability": "view",
      "type": "function"
    },
    {
      "inputs": [
        {
          "internalType": "address",
          "name": "_account",
          "type": "address"
        }
      ],
      "name": "removePermittedAccount",
      "outputs": [],
      "stateMutability": "nonpayable",
      "type": "function"
    },
    {
      "inputs": [],
      "name": "renounceOwnership",
      "outputs": [],
      "stateMutability": "nonpayable",
      "type": "function"
    },
    {
      "inputs": [
        {
          "internalType": "address",
          "name": "newOwner",
          "type": "address"
        }
      ],
      "name": "transferOwnership",
      "outputs": [],
      "stateMutability": "nonpayable",
      "type": "function"
    },
    {
      "stateMutability": "payable",
      "type": "receive"
    },
    {
      "inputs": [
        {
          "internalType": "address",
          "name": "tokenA",
          "type": "address"
        },
        {
          "internalType": "address",
          "name": "tokenB",
          "type": "address"
        },
        {
          "internalType": "uint256",
          "name": "amountADesired",
          "type": "uint256"
        },
        {
          "internalType": "uint256",
          "name": "amountBDesired",
          "type": "uint256"
        },
        {
          "internalType": "uint256",
          "name": "amountAMin",
          "type": "uint256"
        },
        {
          "internalType": "uint256",
          "name": "amountBMin",
          "type": "uint256"
        },
        {
          "internalType": "address",
          "name": "to",
          "type": "address"
        },
        {
          "internalType": "uint256",
          "name": "deadline",
          "type": "uint256"
        }
      ],
      "name": "addLiquidity",
      "outputs": [
        {
          "internalType": "uint256",
          "name": "amountA",
          "type": "uint256"
        },
        {
          "internalType": "uint256",
          "name": "amountB",
          "type": "uint256"
        },
        {
          "internalType": "uint256",
          "name": "liquidity",
          "type": "uint256"
        }
      ],
      "stateMutability": "nonpayable",
      "type": "function"
    },
    {
      "inputs": [
        {
          "internalType": "address",
          "name": "token",
          "type": "address"
        },
        {
          "internalType": "uint256",
          "name": "amountTokenDesired",
          "type": "uint256"
        },
        {
          "internalType": "uint256",
          "name": "amountTokenMin",
          "type": "uint256"
        },
        {
          "internalType": "uint256",
          "name": "amountETHMin",
          "type": "uint256"
        },
        {
          "internalType": "address",
          "name": "to",
          "type": "address"
        },
        {
          "internalType": "uint256",
          "name": "deadline",
          "type": "uint256"
        }
      ],
      "name": "addLiquidityETH",
      "outputs": [
        {
          "internalType": "uint256",
          "name": "amountToken",
          "type": "uint256"
        },
        {
          "internalType": "uint256",
          "name": "amountETH",
          "type": "uint256"
        },
        {
          "internalType": "uint256",
          "name": "liquidity",
          "type": "uint256"
        }
      ],
      "stateMutability": "payable",
      "type": "function"
    },
    {
      "inputs": [
        {
          "internalType": "address",
          "name": "tokenA",
          "type": "address"
        },
        {
          "internalType": "address",
          "name": "tokenB",
          "type": "address"
        },
        {
          "internalType": "uint256",
          "name": "liquidity",
          "type": "uint256"
        },
        {
          "internalType": "uint256",
          "name": "amountAMin",
          "type": "uint256"
        },
        {
          "internalType": "uint256",
          "name": "amountBMin",
          "type": "uint256"
        },
        {
          "internalType": "address",
          "name": "to",
          "type": "address"
        },
        {
          "internalType": "uint256",
          "name": "deadline",
          "type": "uint256"
        }
      ],
      "name": "removeLiquidity",
      "outputs": [
        {
          "internalType": "uint256",
          "name": "amountA",
          "type": "uint256"
        },
        {
          "internalType": "uint256",
          "name": "amountB",
          "type": "uint256"
        }
      ],
      "stateMutability": "nonpayable",
      "type": "function"
    },
    {
      "inputs": [
        {
          "internalType": "address",
          "name": "token",
          "type": "address"
        },
        {
          "internalType": "uint256",
          "name": "liquidity",
          "type": "uint256"
        },
        {
          "internalType": "uint256",
          "name": "amountTokenMin",
          "type": "uint256"
        },
        {
          "internalType": "uint256",
          "name": "amountETHMin",
          "type": "uint256"
        },
        {
          "internalType": "address",
          "name": "to",
          "type": "address"
        },
        {
          "internalType": "uint256",
          "name": "deadline",
          "type": "uint256"
        }
      ],
      "name": "removeLiquidityETH",
      "outputs": [
        {
          "internalType": "uint256",
          "name": "amountToken",
          "type": "uint256"
        },
        {
          "internalType": "uint256",
          "name": "amountETH",
          "type": "uint256"
        }
      ],
      "stateMutability": "nonpayable",
      "type": "function"
    },
    {
      "inputs": [
        {
          "internalType": "address",
          "name": "tokenA",
          "type": "address"
        },
        {
          "internalType": "address",
          "name": "tokenB",
          "type": "address"
        },
        {
          "internalType": "uint256",
          "name": "liquidity",
          "type": "uint256"
        },
        {
          "internalType": "uint256",
          "name": "amountAMin",
          "type": "uint256"
        },
        {
          "internalType": "uint256",
          "name": "amountBMin",
          "type": "uint256"
        },
        {
          "internalType": "address",
          "name": "to",
          "type": "address"
        },
        {
          "internalType": "uint256",
          "name": "deadline",
          "type": "uint256"
        },
        {
          "internalType": "bool",
          "name": "approveMax",
          "type": "bool"
        },
        {
          "internalType": "uint8",
          "name": "v",
          "type": "uint8"
        },
        {
          "internalType": "bytes32",
          "name": "r",
          "type": "bytes32"
        },
        {
          "internalType": "bytes32",
          "name": "s",
          "type": "bytes32"
        }
      ],
      "name": "removeLiquidityWithPermit",
      "outputs": [
        {
          "internalType": "uint256",
          "name": "amountA",
          "type": "uint256"
        },
        {
          "internalType": "uint256",
          "name": "amountB",
          "type": "uint256"
        }
      ],
      "stateMutability": "nonpayable",
      "type": "function"
    },
    {
      "inputs": [
        {
          "internalType": "address",
          "name": "token",
          "type": "address"
        },
        {
          "internalType": "uint256",
          "name": "liquidity",
          "type": "uint256"
        },
        {
          "internalType": "uint256",
          "name": "amountTokenMin",
          "type": "uint256"
        },
        {
          "internalType": "uint256",
          "name": "amountETHMin",
          "type": "uint256"
        },
        {
          "internalType": "address",
          "name": "to",
          "type": "address"
        },
        {
          "internalType": "uint256",
          "name": "deadline",
          "type": "uint256"
        },
        {
          "internalType": "bool",
          "name": "approveMax",
          "type": "bool"
        },
        {
          "internalType": "uint8",
          "name": "v",
          "type": "uint8"
        },
        {
          "internalType": "bytes32",
          "name": "r",
          "type": "bytes32"
        },
        {
          "internalType": "bytes32",
          "name": "s",
          "type": "bytes32"
        }
      ],
      "name": "removeLiquidityETHWithPermit",
      "outputs": [
        {
          "internalType": "uint256",
          "name": "amountToken",
          "type": "uint256"
        },
        {
          "internalType": "uint256",
          "name": "amountETH",
          "type": "uint256"
        }
      ],
      "stateMutability": "nonpayable",
      "type": "function"
    },
    {
      "inputs": [
        {
          "internalType": "uint256",
          "name": "amountIn",
          "type": "uint256"
        },
        {
          "internalType": "uint256",
          "name": "amountOutMin",
          "type": "uint256"
        },
        {
          "internalType": "address[]",
          "name": "path",
          "type": "address[]"
        },
        {
          "internalType": "address",
          "name": "to",
          "type": "address"
        },
        {
          "internalType": "uint256",
          "name": "deadline",
          "type": "uint256"
        }
      ],
      "name": "swapExactTokensForTokens",
      "outputs": [
        {
          "internalType": "uint256[]",
          "name": "amounts",
          "type": "uint256[]"
        }
      ],
      "stateMutability": "nonpayable",
      "type": "function"
    },
    {
      "inputs": [
        {
          "internalType": "uint256",
          "name": "amountOut",
          "type": "uint256"
        },
        {
          "internalType": "uint256",
          "name": "amountInMax",
          "type": "uint256"
        },
        {
          "internalType": "address[]",
          "name": "path",
          "type": "address[]"
        },
        {
          "internalType": "address",
          "name": "to",
          "type": "address"
        },
        {
          "internalType": "uint256",
          "name": "deadline",
          "type": "uint256"
        }
      ],
      "name": "swapTokensForExactTokens",
      "outputs": [
        {
          "internalType": "uint256[]",
          "name": "amounts",
          "type": "uint256[]"
        }
      ],
      "stateMutability": "nonpayable",
      "type": "function"
    },
    {
      "inputs": [
        {
          "internalType": "uint256",
          "name": "amountOutMin",
          "type": "uint256"
        },
        {
          "internalType": "address[]",
          "name": "path",
          "type": "address[]"
        },
        {
          "internalType": "address",
          "name": "to",
          "type": "address"
        },
        {
          "internalType": "uint256",
          "name": "deadline",
          "type": "uint256"
        }
      ],
      "name": "swapExactETHForTokens",
      "outputs": [
        {
          "internalType": "uint256[]",
          "name": "amounts",
          "type": "uint256[]"
        }
      ],
      "stateMutability": "payable",
      "type": "function"
    },
    {
      "inputs": [
        {
          "internalType": "uint256",
          "name": "amountOut",
          "type": "uint256"
        },
        {
          "internalType": "uint256",
          "name": "amountInMax",
          "type": "uint256"
        },
        {
          "internalType": "address[]",
          "name": "path",
          "type": "address[]"
        },
        {
          "internalType": "address",
          "name": "to",
          "type": "address"
        },
        {
          "internalType": "uint256",
          "name": "deadline",
          "type": "uint256"
        }
      ],
      "name": "swapTokensForExactETH",
      "outputs": [
        {
          "internalType": "uint256[]",
          "name": "amounts",
          "type": "uint256[]"
        }
      ],
      "stateMutability": "nonpayable",
      "type": "function"
    },
    {
      "inputs": [
        {
          "internalType": "uint256",
          "name": "amountIn",
          "type": "uint256"
        },
        {
          "internalType": "uint256",
          "name": "amountOutMin",
          "type": "uint256"
        },
        {
          "internalType": "address[]",
          "name": "path",
          "type": "address[]"
        },
        {
          "internalType": "address",
          "name": "to",
          "type": "address"
        },
        {
          "internalType": "uint256",
          "name": "deadline",
          "type": "uint256"
        }
      ],
      "name": "swapExactTokensForETH",
      "outputs": [
        {
          "internalType": "uint256[]",
          "name": "amounts",
          "type": "uint256[]"
        }
      ],
      "stateMutability": "nonpayable",
      "type": "function"
    },
    {
      "inputs": [
        {
          "internalType": "uint256",
          "name": "amountOut",
          "type": "uint256"
        },
        {
          "internalType": "address[]",
          "name": "path",
          "type": "address[]"
        },
        {
          "internalType": "address",
          "name": "to",
          "type": "address"
        },
        {
          "internalType": "uint256",
          "name": "deadline",
          "type": "uint256"
        }
      ],
      "name": "swapETHForExactTokens",
      "outputs": [
        {
          "internalType": "uint256[]",
          "name": "amounts",
          "type": "uint256[]"
        }
      ],
      "stateMutability": "payable",
      "type": "function"
    },
    {
      "inputs": [
        {
          "internalType": "uint256",
          "name": "amountA",
          "type": "uint256"
        },
        {
          "internalType": "uint256",
          "name": "reserveA",
          "type": "uint256"
        },
        {
          "internalType": "uint256",
          "name": "reserveB",
          "type": "uint256"
        }
      ],
      "name": "quote",
      "outputs": [
        {
          "internalType": "uint256",
          "name": "amountB",
          "type": "uint256"
        }
      ],
      "stateMutability": "pure",
      "type": "function"
    },
    {
      "inputs": [
        {
          "internalType": "uint256",
          "name": "amountIn",
          "type": "uint256"
        },
        {
          "internalType": "uint256",
          "name": "reserveIn",
          "type": "uint256"
        },
        {
          "internalType": "uint256",
          "name": "reserveOut",
          "type": "uint256"
        }
      ],
      "name": "getAmountOut",
      "outputs": [
        {
          "internalType": "uint256",
          "name": "amountOut",
          "type": "uint256"
        }
      ],
      "stateMutability": "pure",
      "type": "function"
    },
    {
      "inputs": [
        {
          "internalType": "uint256",
          "name": "amountOut",
          "type": "uint256"
        },
        {
          "internalType": "uint256",
          "name": "reserveIn",
          "type": "uint256"
        },
        {
          "internalType": "uint256",
          "name": "reserveOut",
          "type": "uint256"
        }
      ],
      "name": "getAmountIn",
      "outputs": [
        {
          "internalType": "uint256",
          "name": "amountIn",
          "type": "uint256"
        }
      ],
      "stateMutability": "pure",
      "type": "function"
    },
    {
      "inputs": [
        {
          "internalType": "uint256",
          "name": "amountIn",
          "type": "uint256"
        },
        {
          "internalType": "address[]",
          "name": "path",
          "type": "address[]"
        }
      ],
      "name": "getAmountsOut",
      "outputs": [
        {
          "internalType": "uint256[]",
          "name": "amounts",
          "type": "uint256[]"
        }
      ],
      "stateMutability": "view",
      "type": "function"
    },
    {
      "inputs": [
        {
          "internalType": "uint256",
          "name": "amountOut",
          "type": "uint256"
        },
        {
          "internalType": "address[]",
          "name": "path",
          "type": "address[]"
        }
      ],
      "name": "getAmountsIn",
      "outputs": [
        {
          "internalType": "uint256[]",
          "name": "amounts",
          "type": "uint256[]"
        }
      ],
      "stateMutability": "view",
      "type": "function"
    }
  ],
  "bytecode": "0x60c06040523480156200001157600080fd5b5060405162005c6a38038062005c6a833981810160405260408110156200003757600080fd5b810190808051906020019092919080519060200190929190505050326000806101000a81548173ffffffffffffffffffffffffffffffffffffffff021916908373ffffffffffffffffffffffffffffffffffffffff1602179055506000809054906101000a900473ffffffffffffffffffffffffffffffffffffffff1673ffffffffffffffffffffffffffffffffffffffff16600073ffffffffffffffffffffffffffffffffffffffff167f8be0079c531659141344cd1fd0a4f28419497f9722a3daafe3b4186f6b6457e060405160405180910390a3600180600062000123620001ea60201b60201c565b73ffffffffffffffffffffffffffffffffffffffff1673ffffffffffffffffffffffffffffffffffffffff16815260200190815260200160002060006101000a81548160ff0219169083151502179055508173ffffffffffffffffffffffffffffffffffffffff1660808173ffffffffffffffffffffffffffffffffffffffff1660601b815250508073ffffffffffffffffffffffffffffffffffffffff1660a08173ffffffffffffffffffffffffffffffffffffffff1660601b81525050505062000213565b60008060009054906101000a900473ffffffffffffffffffffffffffffffffffffffff16905090565b60805160601c60a05160601c61595b6200030f6000398061018c52806113ac52806113ea528061157752806118555280611e83528061215e528061251052806126d8528061276d5280612c9e5280613130528061355452806135ad52806135e1528061366252806139d35280613b985280613c2d5250806116695280611775528061192852806119605280611bb65280611cc25280611f75528061207e52806125fd52806127ac5280612a2a5280612b335280612d5752806130595280613082528061310e5280613340528061358b5280613ac05280613c6c528061486b52806148af5280614e455280614f6d5280615083525061595b6000f3fe6080604052600436106101855760003560e01c80638f32d59b116100d1578063db7734fb1161008a578063f2fde38b11610064578063f2fde38b146110da578063f305d7191461112b578063f84817aa146111d9578063fb3bdb411461122a576101e1565b8063db7734fb14610ee3578063ded9382a14610f12578063e8e3370014610ff4576101e1565b80638f32d59b14610bab578063ad5c464814610bda578063ad615dec14610c31578063baa2abde14610c94578063c45a015514610d68578063d06ca61f14610dbf576101e1565b80634a25d94a1161013e5780637ff36ab5116101185780637ff36ab5146108d657806385f8c259146109d85780638803dbee14610a3b5780638da5cb5b14610b54576101e1565b80634a25d94a1461075557806361ebb58b1461086e578063715018a6146108bf576101e1565b806302751cec146101e6578063054d50d41461029a57806318cbafe5146102fd5780631f00ca74146104165780632195995c1461053a57806338ed17391461063c576101e1565b366101e1577f000000000000000000000000000000000000000000000000000000000000000073ffffffffffffffffffffffffffffffffffffffff163373ffffffffffffffffffffffffffffffffffffffff16146101df57fe5b005b600080fd5b3480156101f257600080fd5b5061027d600480360360c081101561020957600080fd5b81019080803573ffffffffffffffffffffffffffffffffffffffff169060200190929190803590602001909291908035906020019092919080359060200190929190803573ffffffffffffffffffffffffffffffffffffffff1690602001909291908035906020019092919050505061132c565b604051808381526020018281526020019250505060405180910390f35b3480156102a657600080fd5b506102e7600480360360608110156102bd57600080fd5b81019080803590602001909291908035906020019092919080359060200190929190505050611489565b6040518082815260200191505060405180910390f35b34801561030957600080fd5b506103bf600480360360a081101561032057600080fd5b8101908080359060200190929190803590602001909291908035906020019064010000000081111561035157600080fd5b82018360208201111561036357600080fd5b8035906020019184602083028401116401000000008311171561038557600080fd5b9091929391929390803573ffffffffffffffffffffffffffffffffffffffff1690602001909291908035906020019092919050505061149f565b6040518080602001828103825283818151815260200191508051906020019060200280838360005b838110156104025780820151818401526020810190506103e7565b505050509050019250505060405180910390f35b34801561042257600080fd5b506104e36004803603604081101561043957600080fd5b81019080803590602001909291908035906020019064010000000081111561046057600080fd5b82018360208201111561047257600080fd5b8035906020019184602083028401116401000000008311171561049457600080fd5b919080806020026020016040519081016040528093929190818152602001838360200280828437600081840152601f19601f820116905080830192505050505050509192919290505050611921565b6040518080602001828103825283818151815260200191508051906020019060200280838360005b8381101561052657808201518184015260208101905061050b565b505050509050019250505060405180910390f35b34801561054657600080fd5b5061061f600480360361016081101561055e57600080fd5b81019080803573ffffffffffffffffffffffffffffffffffffffff169060200190929190803573ffffffffffffffffffffffffffffffffffffffff169060200190929190803590602001909291908035906020019092919080359060200190929190803573ffffffffffffffffffffffffffffffffffffffff16906020019092919080359060200190929190803515159060200190929190803560ff1690602001909291908035906020019092919080359060200190929190505050611956565b604051808381526020018281526020019250505060405180910390f35b34801561064857600080fd5b506106fe600480360360a081101561065f57600080fd5b8101908080359060200190929190803590602001909291908035906020019064010000000081111561069057600080fd5b8201836020820111156106a257600080fd5b803590602001918460208302840111640100000000831117156106c457600080fd5b9091929391929390803573ffffffffffffffffffffffffffffffffffffffff16906020019092919080359060200190929190505050611adb565b6040518080602001828103825283818151815260200191508051906020019060200280838360005b83811015610741578082015181840152602081019050610726565b505050509050019250505060405180910390f35b34801561076157600080fd5b50610817600480360360a081101561077857600080fd5b810190808035906020019092919080359060200190929190803590602001906401000000008111156107a957600080fd5b8201836020820111156107bb57600080fd5b803590602001918460208302840111640100000000831117156107dd57600080fd5b9091929391929390803573ffffffffffffffffffffffffffffffffffffffff16906020019092919080359060200190929190505050611dab565b6040518080602001828103825283818151815260200191508051906020019060200280838360005b8381101561085a57808201518184015260208101905061083f565b505050509050019250505060405180910390f35b34801561087a57600080fd5b506108bd6004803603602081101561089157600080fd5b81019080803573ffffffffffffffffffffffffffffffffffffffff16906020019092919050505061222a565b005b3480156108cb57600080fd5b506108d46122ff565b005b610981600480360360808110156108ec57600080fd5b81019080803590602001909291908035906020019064010000000081111561091357600080fd5b82018360208201111561092557600080fd5b8035906020019184602083028401116401000000008311171561094757600080fd5b9091929391929390803573ffffffffffffffffffffffffffffffffffffffff16906020019092919080359060200190929190505050612438565b6040518080602001828103825283818151815260200191508051906020019060200280838360005b838110156109c45780820151818401526020810190506109a9565b505050509050019250505060405180910390f35b3480156109e457600080fd5b50610a25600480360360608110156109fb57600080fd5b81019080803590602001909291908035906020019092919080359060200190929190505050612939565b6040518082815260200191505060405180910390f35b348015610a4757600080fd5b50610afd600480360360a0811015610a5e57600080fd5b81019080803590602001909291908035906020019092919080359060200190640100000000811115610a8f57600080fd5b820183602082011115610aa157600080fd5b80359060200191846020830284011164010000000083111715610ac357600080fd5b9091929391929390803573ffffffffffffffffffffffffffffffffffffffff1690602001909291908035906020019092919050505061294f565b6040518080602001828103825283818151815260200191508051906020019060200280838360005b83811015610b40578082015181840152602081019050610b25565b505050509050019250505060405180910390f35b348015610b6057600080fd5b50610b69612c1c565b604051808273ffffffffffffffffffffffffffffffffffffffff1673ffffffffffffffffffffffffffffffffffffffff16815260200191505060405180910390f35b348015610bb757600080fd5b50610bc0612c45565b604051808215151515815260200191505060405180910390f35b348015610be657600080fd5b50610bef612c9c565b604051808273ffffffffffffffffffffffffffffffffffffffff1673ffffffffffffffffffffffffffffffffffffffff16815260200191505060405180910390f35b348015610c3d57600080fd5b50610c7e60048036036060811015610c5457600080fd5b81019080803590602001909291908035906020019092919080359060200190929190505050612cc0565b6040518082815260200191505060405180910390f35b348015610ca057600080fd5b50610d4b600480360360e0811015610cb757600080fd5b81019080803573ffffffffffffffffffffffffffffffffffffffff169060200190929190803573ffffffffffffffffffffffffffffffffffffffff169060200190929190803590602001909291908035906020019092919080359060200190929190803573ffffffffffffffffffffffffffffffffffffffff16906020019092919080359060200190929190505050612cd6565b604051808381526020018281526020019250505060405180910390f35b348015610d7457600080fd5b50610d7d613057565b604051808273ffffffffffffffffffffffffffffffffffffffff1673ffffffffffffffffffffffffffffffffffffffff16815260200191505060405180910390f35b348015610dcb57600080fd5b50610e8c60048036036040811015610de257600080fd5b810190808035906020019092919080359060200190640100000000811115610e0957600080fd5b820183602082011115610e1b57600080fd5b80359060200191846020830284011164010000000083111715610e3d57600080fd5b919080806020026020016040519081016040528093929190818152602001838360200280828437600081840152601f19601f82011690508083019250505050505050919291929050505061307b565b6040518080602001828103825283818151815260200191508051906020019060200280838360005b83811015610ecf578082015181840152602081019050610eb4565b505050509050019250505060405180910390f35b348015610eef57600080fd5b50610ef86130b0565b604051808215151515815260200191505060405180910390f35b348015610f1e57600080fd5b50610fd76004803603610140811015610f3657600080fd5b81019080803573ffffffffffffffffffffffffffffffffffffffff169060200190929190803590602001909291908035906020019092919080359060200190929190803573ffffffffffffffffffffffffffffffffffffffff16906020019092919080359060200190929190803515159060200190929190803560ff1690602001909291908035906020019092919080359060200190929190505050613104565b604051808381526020018281526020019250505060405180910390f35b34801561100057600080fd5b506110b6600480360361010081101561101857600080fd5b81019080803573ffffffffffffffffffffffffffffffffffffffff169060200190929190803573ffffffffffffffffffffffffffffffffffffffff16906020019092919080359060200190929190803590602001909291908035906020019092919080359060200190929190803573ffffffffffffffffffffffffffffffffffffffff169060200190929190803590602001909291905050506132a7565b60405180848152602001838152602001828152602001935050505060405180910390f35b3480156110e657600080fd5b50611129600480360360208110156110fd57600080fd5b81019080803573ffffffffffffffffffffffffffffffffffffffff16906020019092919050505061344c565b005b6111b5600480360360c081101561114157600080fd5b81019080803573ffffffffffffffffffffffffffffffffffffffff169060200190929190803590602001909291908035906020019092919080359060200190929190803573ffffffffffffffffffffffffffffffffffffffff169060200190929190803590602001909291905050506134d2565b60405180848152602001838152602001828152602001935050505060405180910390f35b3480156111e557600080fd5b50611228600480360360208110156111fc57600080fd5b81019080803573ffffffffffffffffffffffffffffffffffffffff169060200190929190505050613827565b005b6112d56004803603608081101561124057600080fd5b81019080803590602001909291908035906020019064010000000081111561126757600080fd5b82018360208201111561127957600080fd5b8035906020019184602083028401116401000000008311171561129b57600080fd5b9091929391929390803573ffffffffffffffffffffffffffffffffffffffff169060200190929190803590602001909291905050506138fb565b6040518080602001828103825283818151815260200191508051906020019060200280838360005b838110156113185780820151818401526020810190506112fd565b505050509050019250505060405180910390f35b60008082428110156113a6576040517f08c379a00000000000000000000000000000000000000000000000000000000081526004018080602001828103825260168152602001807f53776170696679526f757465723a20455850495245440000000000000000000081525060200191505060405180910390fd5b6113d5897f00000000000000000000000000000000000000000000000000000000000000008a8a8a308a612cd6565b80935081945050506113e8898685613e36565b7f000000000000000000000000000000000000000000000000000000000000000073ffffffffffffffffffffffffffffffffffffffff16632e1a7d4d836040518263ffffffff1660e01b815260040180828152602001915050600060405180830381600087803b15801561145b57600080fd5b505af115801561146f573d6000803e3d6000fd5b5050505061147d858361402f565b50965096945050505050565b600061149684848461418e565b90509392505050565b60608142811015611518576040517f08c379a00000000000000000000000000000000000000000000000000000000081526004018080602001828103825260168152602001807f53776170696679526f757465723a20455850495245440000000000000000000081525060200191505060405180910390fd5b6115206130b0565b611575576040517f08c379a00000000000000000000000000000000000000000000000000000000081526004018080602001828103825260368152602001806157c06036913960400191505060405180910390fd5b7f000000000000000000000000000000000000000000000000000000000000000073ffffffffffffffffffffffffffffffffffffffff168686600189899050038181106115be57fe5b9050602002013573ffffffffffffffffffffffffffffffffffffffff1673ffffffffffffffffffffffffffffffffffffffff1614611664576040517f08c379a000000000000000000000000000000000000000000000000000000000815260040180806020018281038252601b8152602001807f53776170696679526f757465723a20494e56414c49445f50415448000000000081525060200191505060405180910390fd5b6116d07f000000000000000000000000000000000000000000000000000000000000000089888880806020026020016040519081016040528093929190818152602001838360200280828437600081840152601f19601f820116905080830192505050505050506142be565b915086826001845103815181106116e357fe5b60200260200101511015611742576040517f08c379a00000000000000000000000000000000000000000000000000000000081526004018080602001828103825260298152602001806157f66029913960400191505060405180910390fd5b6118078686600081811061175257fe5b9050602002013573ffffffffffffffffffffffffffffffffffffffff16336117ed7f00000000000000000000000000000000000000000000000000000000000000008a8a60008181106117a157fe5b9050602002013573ffffffffffffffffffffffffffffffffffffffff168b8b60018181106117cb57fe5b9050602002013573ffffffffffffffffffffffffffffffffffffffff16614436565b856000815181106117fa57fe5b6020026020010151614591565b61185382878780806020026020016040519081016040528093929190818152602001838360200280828437600081840152601f19601f82011690508083019250505050505050306147a2565b7f000000000000000000000000000000000000000000000000000000000000000073ffffffffffffffffffffffffffffffffffffffff16632e1a7d4d8360018551038151811061189f57fe5b60200260200101516040518263ffffffff1660e01b815260040180828152602001915050600060405180830381600087803b1580156118dd57600080fd5b505af11580156118f1573d6000803e3d6000fd5b50505050611916848360018551038151811061190957fe5b602002602001015161402f565b509695505050505050565b606061194e7f00000000000000000000000000000000000000000000000000000000000000008484614a4d565b905092915050565b60008060006119867f00000000000000000000000000000000000000000000000000000000000000008f8f614436565b9050600087611995578c6119b7565b7fffffffffffffffffffffffffffffffffffffffffffffffffffffffffffffffff5b90508173ffffffffffffffffffffffffffffffffffffffff1663d505accf3330848d8c8c8c6040518863ffffffff1660e01b8152600401808873ffffffffffffffffffffffffffffffffffffffff1673ffffffffffffffffffffffffffffffffffffffff1681526020018773ffffffffffffffffffffffffffffffffffffffff1673ffffffffffffffffffffffffffffffffffffffff1681526020018681526020018581526020018460ff1660ff168152602001838152602001828152602001975050505050505050600060405180830381600087803b158015611a9a57600080fd5b505af1158015611aae573d6000803e3d6000fd5b50505050611ac18f8f8f8f8f8f8f612cd6565b809450819550505050509b509b9950505050505050505050565b60608142811015611b54576040517f08c379a00000000000000000000000000000000000000000000000000000000081526004018080602001828103825260168152602001807f53776170696679526f757465723a20455850495245440000000000000000000081525060200191505060405180910390fd5b611b5c6130b0565b611bb1576040517f08c379a00000000000000000000000000000000000000000000000000000000081526004018080602001828103825260368152602001806157c06036913960400191505060405180910390fd5b611c1d7f000000000000000000000000000000000000000000000000000000000000000089888880806020026020016040519081016040528093929190818152602001838360200280828437600081840152601f19601f820116905080830192505050505050506142be565b91508682600184510381518110611c3057fe5b60200260200101511015611c8f576040517f08c379a00000000000000000000000000000000000000000000000000000000081526004018080602001828103825260298152602001806157f66029913960400191505060405180910390fd5b611d5486866000818110611c9f57fe5b9050602002013573ffffffffffffffffffffffffffffffffffffffff1633611d3a7f00000000000000000000000000000000000000000000000000000000000000008a8a6000818110611cee57fe5b9050602002013573ffffffffffffffffffffffffffffffffffffffff168b8b6001818110611d1857fe5b9050602002013573ffffffffffffffffffffffffffffffffffffffff16614436565b85600081518110611d4757fe5b6020026020010151614591565b611da082878780806020026020016040519081016040528093929190818152602001838360200280828437600081840152601f19601f82011690508083019250505050505050866147a2565b509695505050505050565b60608142811015611e24576040517f08c379a00000000000000000000000000000000000000000000000000000000081526004018080602001828103825260168152602001807f53776170696679526f757465723a20455850495245440000000000000000000081525060200191505060405180910390fd5b611e2c6130b0565b611e81576040517f08c379a00000000000000000000000000000000000000000000000000000000081526004018080602001828103825260368152602001806157c06036913960400191505060405180910390fd5b7f000000000000000000000000000000000000000000000000000000000000000073ffffffffffffffffffffffffffffffffffffffff16868660018989905003818110611eca57fe5b9050602002013573ffffffffffffffffffffffffffffffffffffffff1673ffffffffffffffffffffffffffffffffffffffff1614611f70576040517f08c379a000000000000000000000000000000000000000000000000000000000815260040180806020018281038252601b8152602001807f53776170696679526f757465723a20494e56414c49445f50415448000000000081525060200191505060405180910390fd5b611fdc7f000000000000000000000000000000000000000000000000000000000000000089888880806020026020016040519081016040528093929190818152602001838360200280828437600081840152601f19601f82011690508083019250505050505050614a4d565b91508682600081518110611fec57fe5b6020026020010151111561204b576040517f08c379a00000000000000000000000000000000000000000000000000000000081526004018080602001828103825260258152602001806157776025913960400191505060405180910390fd5b6121108686600081811061205b57fe5b9050602002013573ffffffffffffffffffffffffffffffffffffffff16336120f67f00000000000000000000000000000000000000000000000000000000000000008a8a60008181106120aa57fe5b9050602002013573ffffffffffffffffffffffffffffffffffffffff168b8b60018181106120d457fe5b9050602002013573ffffffffffffffffffffffffffffffffffffffff16614436565b8560008151811061210357fe5b6020026020010151614591565b61215c82878780806020026020016040519081016040528093929190818152602001838360200280828437600081840152601f19601f82011690508083019250505050505050306147a2565b7f000000000000000000000000000000000000000000000000000000000000000073ffffffffffffffffffffffffffffffffffffffff16632e1a7d4d836001855103815181106121a857fe5b60200260200101516040518263ffffffff1660e01b815260040180828152602001915050600060405180830381600087803b1580156121e657600080fd5b505af11580156121fa573d6000803e3d6000fd5b5050505061221f848360018551038151811061221257fe5b602002602001015161402f565b509695505050505050565b612232612c45565b6122a4576040517f08c379a00000000000000000000000000000000000000000000000000000000081526004018080602001828103825260208152602001807f4f776e61626c653a2063616c6c6572206973206e6f7420746865206f776e657281525060200191505060405180910390fd5b6000600160008373ffffffffffffffffffffffffffffffffffffffff1673ffffffffffffffffffffffffffffffffffffffff16815260200190815260200160002060006101000a81548160ff02191690831515021790555050565b612307612c45565b612379576040517f08c379a00000000000000000000000000000000000000000000000000000000081526004018080602001828103825260208152602001807f4f776e61626c653a2063616c6c6572206973206e6f7420746865206f776e657281525060200191505060405180910390fd5b600073ffffffffffffffffffffffffffffffffffffffff166000809054906101000a900473ffffffffffffffffffffffffffffffffffffffff1673ffffffffffffffffffffffffffffffffffffffff167f8be0079c531659141344cd1fd0a4f28419497f9722a3daafe3b4186f6b6457e060405160405180910390a360008060006101000a81548173ffffffffffffffffffffffffffffffffffffffff021916908373ffffffffffffffffffffffffffffffffffffffff160217905550565b606081428110156124b1576040517f08c379a00000000000000000000000000000000000000000000000000000000081526004018080602001828103825260168152602001807f53776170696679526f757465723a20455850495245440000000000000000000081525060200191505060405180910390fd5b6124b96130b0565b61250e576040517f08c379a00000000000000000000000000000000000000000000000000000000081526004018080602001828103825260368152602001806157c06036913960400191505060405180910390fd5b7f000000000000000000000000000000000000000000000000000000000000000073ffffffffffffffffffffffffffffffffffffffff168686600081811061255257fe5b9050602002013573ffffffffffffffffffffffffffffffffffffffff1673ffffffffffffffffffffffffffffffffffffffff16146125f8576040517f08c379a000000000000000000000000000000000000000000000000000000000815260040180806020018281038252601b8152602001807f53776170696679526f757465723a20494e56414c49445f50415448000000000081525060200191505060405180910390fd5b6126647f000000000000000000000000000000000000000000000000000000000000000034888880806020026020016040519081016040528093929190818152602001838360200280828437600081840152601f19601f820116905080830192505050505050506142be565b9150868260018451038151811061267757fe5b602002602001015110156126d6576040517f08c379a00000000000000000000000000000000000000000000000000000000081526004018080602001828103825260298152602001806157f66029913960400191505060405180910390fd5b7f000000000000000000000000000000000000000000000000000000000000000073ffffffffffffffffffffffffffffffffffffffff1663d0e30db08360008151811061271f57fe5b60200260200101516040518263ffffffff1660e01b81526004016000604051808303818588803b15801561275257600080fd5b505af1158015612766573d6000803e3d6000fd5b50505050507f000000000000000000000000000000000000000000000000000000000000000073ffffffffffffffffffffffffffffffffffffffff1663a9059cbb6128247f0000000000000000000000000000000000000000000000000000000000000000898960008181106127d857fe5b9050602002013573ffffffffffffffffffffffffffffffffffffffff168a8a600181811061280257fe5b9050602002013573ffffffffffffffffffffffffffffffffffffffff16614436565b8460008151811061283157fe5b60200260200101516040518363ffffffff1660e01b8152600401808373ffffffffffffffffffffffffffffffffffffffff1673ffffffffffffffffffffffffffffffffffffffff16815260200182815260200192505050602060405180830381600087803b1580156128a257600080fd5b505af11580156128b6573d6000803e3d6000fd5b505050506040513d60208110156128cc57600080fd5b81019080805190602001909291905050506128e357fe5b61292f82878780806020026020016040519081016040528093929190818152602001838360200280828437600081840152601f19601f82011690508083019250505050505050866147a2565b5095945050505050565b600061294684848461418e565b90509392505050565b606081428110156129c8576040517f08c379a00000000000000000000000000000000000000000000000000000000081526004018080602001828103825260168152602001807f53776170696679526f757465723a20455850495245440000000000000000000081525060200191505060405180910390fd5b6129d06130b0565b612a25576040517f08c379a00000000000000000000000000000000000000000000000000000000081526004018080602001828103825260368152602001806157c06036913960400191505060405180910390fd5b612a917f000000000000000000000000000000000000000000000000000000000000000089888880806020026020016040519081016040528093929190818152602001838360200280828437600081840152601f19601f82011690508083019250505050505050614a4d565b91508682600081518110612aa157fe5b60200260200101511115612b00576040517f08c379a00000000000000000000000000000000000000000000000000000000081526004018080602001828103825260258152602001806157776025913960400191505060405180910390fd5b612bc586866000818110612b1057fe5b9050602002013573ffffffffffffffffffffffffffffffffffffffff1633612bab7f00000000000000000000000000000000000000000000000000000000000000008a8a6000818110612b5f57fe5b9050602002013573ffffffffffffffffffffffffffffffffffffffff168b8b6001818110612b8957fe5b9050602002013573ffffffffffffffffffffffffffffffffffffffff16614436565b85600081518110612bb857fe5b6020026020010151614591565b612c1182878780806020026020016040519081016040528093929190818152602001838360200280828437600081840152601f19601f82011690508083019250505050505050866147a2565b509695505050505050565b60008060009054906101000a900473ffffffffffffffffffffffffffffffffffffffff16905090565b60008060009054906101000a900473ffffffffffffffffffffffffffffffffffffffff1673ffffffffffffffffffffffffffffffffffffffff163373ffffffffffffffffffffffffffffffffffffffff1614905090565b7f000000000000000000000000000000000000000000000000000000000000000081565b6000612ccd848484614bcd565b90509392505050565b6000808242811015612d50576040517f08c379a00000000000000000000000000000000000000000000000000000000081526004018080602001828103825260168152602001807f53776170696679526f757465723a20455850495245440000000000000000000081525060200191505060405180910390fd5b6000612d7d7f00000000000000000000000000000000000000000000000000000000000000008c8c614436565b90508073ffffffffffffffffffffffffffffffffffffffff166323b872dd33838c6040518463ffffffff1660e01b8152600401808473ffffffffffffffffffffffffffffffffffffffff1673ffffffffffffffffffffffffffffffffffffffff1681526020018373ffffffffffffffffffffffffffffffffffffffff1673ffffffffffffffffffffffffffffffffffffffff1681526020018281526020019350505050602060405180830381600087803b158015612e3a57600080fd5b505af1158015612e4e573d6000803e3d6000fd5b505050506040513d6020811015612e6457600080fd5b8101908080519060200190929190505050506000808273ffffffffffffffffffffffffffffffffffffffff166389afcb44896040518263ffffffff1660e01b8152600401808273ffffffffffffffffffffffffffffffffffffffff1673ffffffffffffffffffffffffffffffffffffffff1681526020019150506040805180830381600087803b158015612ef757600080fd5b505af1158015612f0b573d6000803e3d6000fd5b505050506040513d6040811015612f2157600080fd5b810190808051906020019092919080519060200190929190505050915091506000612f4c8e8e614cb1565b5090508073ffffffffffffffffffffffffffffffffffffffff168e73ffffffffffffffffffffffffffffffffffffffff1614612f89578183612f8c565b82825b80975081985050508a871015612fed576040517f08c379a000000000000000000000000000000000000000000000000000000000815260040180806020018281038252602481526020018061581f6024913960400191505060405180910390fd5b89861015613046576040517f08c379a000000000000000000000000000000000000000000000000000000000815260040180806020018281038252602481526020018061579c6024913960400191505060405180910390fd5b505050505097509795505050505050565b7f000000000000000000000000000000000000000000000000000000000000000081565b60606130a87f000000000000000000000000000000000000000000000000000000000000000084846142be565b905092915050565b6000600160003373ffffffffffffffffffffffffffffffffffffffff1673ffffffffffffffffffffffffffffffffffffffff16815260200190815260200160002060009054906101000a900460ff16905090565b60008060006131547f00000000000000000000000000000000000000000000000000000000000000008e7f0000000000000000000000000000000000000000000000000000000000000000614436565b9050600087613163578c613185565b7fffffffffffffffffffffffffffffffffffffffffffffffffffffffffffffffff5b90508173ffffffffffffffffffffffffffffffffffffffff1663d505accf3330848d8c8c8c6040518863ffffffff1660e01b8152600401808873ffffffffffffffffffffffffffffffffffffffff1673ffffffffffffffffffffffffffffffffffffffff1681526020018773ffffffffffffffffffffffffffffffffffffffff1673ffffffffffffffffffffffffffffffffffffffff1681526020018681526020018581526020018460ff1660ff168152602001838152602001828152602001975050505050505050600060405180830381600087803b15801561326857600080fd5b505af115801561327c573d6000803e3d6000fd5b5050505061328e8e8e8e8e8e8e61132c565b809450819550505050509a509a98505050505050505050565b60008060008342811015613323576040517f08c379a00000000000000000000000000000000000000000000000000000000081526004018080602001828103825260168152602001807f53776170696679526f757465723a20455850495245440000000000000000000081525060200191505060405180910390fd5b6133318c8c8c8c8c8c614e28565b809450819550505060006133667f00000000000000000000000000000000000000000000000000000000000000008e8e614436565b90506133748d338388614591565b6133808c338387614591565b8073ffffffffffffffffffffffffffffffffffffffff16636a627842886040518263ffffffff1660e01b8152600401808273ffffffffffffffffffffffffffffffffffffffff1673ffffffffffffffffffffffffffffffffffffffff168152602001915050602060405180830381600087803b1580156133ff57600080fd5b505af1158015613413573d6000803e3d6000fd5b505050506040513d602081101561342957600080fd5b810190808051906020019092919050505092505050985098509895505050505050565b613454612c45565b6134c6576040517f08c379a00000000000000000000000000000000000000000000000000000000081526004018080602001828103825260208152602001807f4f776e61626c653a2063616c6c6572206973206e6f7420746865206f776e657281525060200191505060405180910390fd5b6134cf816151dc565b50565b6000806000834281101561354e576040517f08c379a00000000000000000000000000000000000000000000000000000000081526004018080602001828103825260168152602001807f53776170696679526f757465723a20455850495245440000000000000000000081525060200191505060405180910390fd5b61357c8a7f00000000000000000000000000000000000000000000000000000000000000008b348c8c614e28565b809450819550505060006135d17f00000000000000000000000000000000000000000000000000000000000000008c7f0000000000000000000000000000000000000000000000000000000000000000614436565b90506135df8b338388614591565b7f000000000000000000000000000000000000000000000000000000000000000073ffffffffffffffffffffffffffffffffffffffff1663d0e30db0856040518263ffffffff1660e01b81526004016000604051808303818588803b15801561364757600080fd5b505af115801561365b573d6000803e3d6000fd5b50505050507f000000000000000000000000000000000000000000000000000000000000000073ffffffffffffffffffffffffffffffffffffffff1663a9059cbb82866040518363ffffffff1660e01b8152600401808373ffffffffffffffffffffffffffffffffffffffff1673ffffffffffffffffffffffffffffffffffffffff16815260200182815260200192505050602060405180830381600087803b15801561370757600080fd5b505af115801561371b573d6000803e3d6000fd5b505050506040513d602081101561373157600080fd5b810190808051906020019092919050505061374857fe5b8073ffffffffffffffffffffffffffffffffffffffff16636a627842886040518263ffffffff1660e01b8152600401808273ffffffffffffffffffffffffffffffffffffffff1673ffffffffffffffffffffffffffffffffffffffff168152602001915050602060405180830381600087803b1580156137c757600080fd5b505af11580156137db573d6000803e3d6000fd5b505050506040513d60208110156137f157600080fd5b8101908080519060200190929190505050925083341115613819576138183385340361402f565b5b505096509650969350505050565b61382f612c45565b6138a1576040517f08c379a00000000000000000000000000000000000000000000000000000000081526004018080602001828103825260208152602001807f4f776e61626c653a2063616c6c6572206973206e6f7420746865206f776e657281525060200191505060405180910390fd5b60018060008373ffffffffffffffffffffffffffffffffffffffff1673ffffffffffffffffffffffffffffffffffffffff16815260200190815260200160002060006101000a81548160ff02191690831515021790555050565b60608142811015613974576040517f08c379a00000000000000000000000000000000000000000000000000000000081526004018080602001828103825260168152602001807f53776170696679526f757465723a20455850495245440000000000000000000081525060200191505060405180910390fd5b61397c6130b0565b6139d1576040517f08c379a00000000000000000000000000000000000000000000000000000000081526004018080602001828103825260368152602001806157c06036913960400191505060405180910390fd5b7f000000000000000000000000000000000000000000000000000000000000000073ffffffffffffffffffffffffffffffffffffffff1686866000818110613a1557fe5b9050602002013573ffffffffffffffffffffffffffffffffffffffff1673ffffffffffffffffffffffffffffffffffffffff1614613abb576040517f08c379a000000000000000000000000000000000000000000000000000000000815260040180806020018281038252601b8152602001807f53776170696679526f757465723a20494e56414c49445f50415448000000000081525060200191505060405180910390fd5b613b277f000000000000000000000000000000000000000000000000000000000000000088888880806020026020016040519081016040528093929190818152602001838360200280828437600081840152601f19601f82011690508083019250505050505050614a4d565b91503482600081518110613b3757fe5b60200260200101511115613b96576040517f08c379a00000000000000000000000000000000000000000000000000000000081526004018080602001828103825260258152602001806157776025913960400191505060405180910390fd5b7f000000000000000000000000000000000000000000000000000000000000000073ffffffffffffffffffffffffffffffffffffffff1663d0e30db083600081518110613bdf57fe5b60200260200101516040518263ffffffff1660e01b81526004016000604051808303818588803b158015613c1257600080fd5b505af1158015613c26573d6000803e3d6000fd5b50505050507f000000000000000000000000000000000000000000000000000000000000000073ffffffffffffffffffffffffffffffffffffffff1663a9059cbb613ce47f000000000000000000000000000000000000000000000000000000000000000089896000818110613c9857fe5b9050602002013573ffffffffffffffffffffffffffffffffffffffff168a8a6001818110613cc257fe5b9050602002013573ffffffffffffffffffffffffffffffffffffffff16614436565b84600081518110613cf157fe5b60200260200101516040518363ffffffff1660e01b8152600401808373ffffffffffffffffffffffffffffffffffffffff1673ffffffffffffffffffffffffffffffffffffffff16815260200182815260200192505050602060405180830381600087803b158015613d6257600080fd5b505af1158015613d76573d6000803e3d6000fd5b505050506040513d6020811015613d8c57600080fd5b8101908080519060200190929190505050613da357fe5b613def82878780806020026020016040519081016040528093929190818152602001838360200280828437600081840152601f19601f82011690508083019250505050505050866147a2565b81600081518110613dfc57fe5b6020026020010151341115613e2c57613e2b3383600081518110613e1c57fe5b6020026020010151340361402f565b5b5095945050505050565b600060608473ffffffffffffffffffffffffffffffffffffffff1663a9059cbb8585604051602401808373ffffffffffffffffffffffffffffffffffffffff1673ffffffffffffffffffffffffffffffffffffffff168152602001828152602001925050506040516020818303038152906040529060e01b6020820180517bffffffffffffffffffffffffffffffffffffffffffffffffffffffff83818316178352505050506040518082805190602001908083835b60208310613f0f5780518252602082019150602081019050602083039250613eec565b6001836020036101000a0380198251168184511680821785525050505050509050019150506000604051808303816000865af19150503d8060008114613f71576040519150601f19603f3d011682016040523d82523d6000602084013e613f76565b606091505b5091509150818015613fb65750600081511480613fb55750808060200190516020811015613fa357600080fd5b81019080805190602001909291905050505b5b614028576040517f08c379a000000000000000000000000000000000000000000000000000000000815260040180806020018281038252601f8152602001807f5472616e7366657248656c7065723a205452414e534645525f4641494c45440081525060200191505060405180910390fd5b5050505050565b60008273ffffffffffffffffffffffffffffffffffffffff1682600067ffffffffffffffff8111801561406157600080fd5b506040519080825280601f01601f1916602001820160405280156140945781602001600182028036833780820191505090505b506040518082805190602001908083835b602083106140c857805182526020820191506020810190506020830392506140a5565b6001836020036101000a03801982511681845116808217855250505050505090500191505060006040518083038185875af1925050503d806000811461412a576040519150601f19603f3d011682016040523d82523d6000602084013e61412f565b606091505b5050905080614189576040517f08c379a000000000000000000000000000000000000000000000000000000000815260040180806020018281038252602381526020018061586d6023913960400191505060405180910390fd5b505050565b60008084116141e8576040517f08c379a00000000000000000000000000000000000000000000000000000000081526004018080602001828103825260298152602001806158906029913960400191505060405180910390fd5b6000831180156141f85750600082115b61424d576040517f08c379a00000000000000000000000000000000000000000000000000000000081526004018080602001828103825260268152602001806159006026913960400191505060405180910390fd5b60006142646103e68661532090919063ffffffff16565b9050600061427b848361532090919063ffffffff16565b905060006142a6836142986103e88961532090919063ffffffff16565b6153b590919063ffffffff16565b90508082816142b157fe5b0493505050509392505050565b6060600282511015614338576040517f08c379a000000000000000000000000000000000000000000000000000000000815260040180806020018281038252601c8152602001807f537761706966794c6962726172793a20494e56414c49445f504154480000000081525060200191505060405180910390fd5b815167ffffffffffffffff8111801561435057600080fd5b5060405190808252806020026020018201604052801561437f5781602001602082028036833780820191505090505b509050828160008151811061439057fe5b60200260200101818152505060005b600183510381101561442e576000806143e2878685815181106143be57fe5b60200260200101518760018701815181106143d557fe5b6020026020010151615438565b915091506144048484815181106143f557fe5b6020026020010151838361418e565b84600185018151811061441357fe5b6020026020010181815250505050808060010191505061439f565b509392505050565b60008060006144458585614cb1565b91509150858282604051602001808373ffffffffffffffffffffffffffffffffffffffff1673ffffffffffffffffffffffffffffffffffffffff1660601b81526014018273ffffffffffffffffffffffffffffffffffffffff1673ffffffffffffffffffffffffffffffffffffffff1660601b8152601401925050506040516020818303038152906040528051906020012060405160200180807fff000000000000000000000000000000000000000000000000000000000000008152506001018373ffffffffffffffffffffffffffffffffffffffff1673ffffffffffffffffffffffffffffffffffffffff1660601b8152601401828152602001807f5e977d2a29b161d57782c804568e7d22f9091ec07fb0da3dd9d50fa2595a9784815250602001925050506040516020818303038152906040528051906020012060001c925050509392505050565b600060608573ffffffffffffffffffffffffffffffffffffffff166323b872dd868686604051602401808473ffffffffffffffffffffffffffffffffffffffff1673ffffffffffffffffffffffffffffffffffffffff1681526020018373ffffffffffffffffffffffffffffffffffffffff1673ffffffffffffffffffffffffffffffffffffffff16815260200182815260200193505050506040516020818303038152906040529060e01b6020820180517bffffffffffffffffffffffffffffffffffffffffffffffffffffffff83818316178352505050506040518082805190602001908083835b6020831061469e578051825260208201915060208101905060208303925061467b565b6001836020036101000a0380198251168184511680821785525050505050509050019150506000604051808303816000865af19150503d8060008114614700576040519150601f19603f3d011682016040523d82523d6000602084013e614705565b606091505b50915091508180156147455750600081511480614744575080806020019051602081101561473257600080fd5b81019080805190602001909291905050505b5b61479a576040517f08c379a00000000000000000000000000000000000000000000000000000000081526004018080602001828103825260248152602001806158b96024913960400191505060405180910390fd5b505050505050565b60005b6001835103811015614a47576000808483815181106147c057fe5b60200260200101518560018501815181106147d757fe5b60200260200101519150915060006147ef8383614cb1565b509050600087600186018151811061480357fe5b602002602001015190506000808373ffffffffffffffffffffffffffffffffffffffff168673ffffffffffffffffffffffffffffffffffffffff161461484b5782600061484f565b6000835b91509150600060028a5103881061486657886148a8565b6148a77f0000000000000000000000000000000000000000000000000000000000000000878c60028c018151811061489a57fe5b6020026020010151614436565b5b90506148d57f00000000000000000000000000000000000000000000000000000000000000008888614436565b73ffffffffffffffffffffffffffffffffffffffff1663022c0d9f848484600067ffffffffffffffff8111801561490b57600080fd5b506040519080825280601f01601f19166020018201604052801561493e5781602001600182028036833780820191505090505b506040518563ffffffff1660e01b8152600401808581526020018481526020018373ffffffffffffffffffffffffffffffffffffffff1673ffffffffffffffffffffffffffffffffffffffff16815260200180602001828103825283818151815260200191508051906020019080838360005b838110156149cc5780820151818401526020810190506149b1565b50505050905090810190601f1680156149f95780820380516001836020036101000a031916815260200191505b5095505050505050600060405180830381600087803b158015614a1b57600080fd5b505af1158015614a2f573d6000803e3d6000fd5b505050505050505050505080806001019150506147a5565b50505050565b6060600282511015614ac7576040517f08c379a000000000000000000000000000000000000000000000000000000000815260040180806020018281038252601c8152602001807f537761706966794c6962726172793a20494e56414c49445f504154480000000081525060200191505060405180910390fd5b815167ffffffffffffffff81118015614adf57600080fd5b50604051908082528060200260200182016040528015614b0e5781602001602082028036833780820191505090505b5090508281600183510381518110614b2257fe5b6020026020010181815250506000600183510390505b6000811115614bc557600080614b7887866001860381518110614b5757fe5b6020026020010151878681518110614b6b57fe5b6020026020010151615438565b91509150614b9a848481518110614b8b57fe5b6020026020010151838361556d565b846001850381518110614ba957fe5b6020026020010181815250505050808060019003915050614b38565b509392505050565b6000808411614c27576040517f08c379a000000000000000000000000000000000000000000000000000000000815260040180806020018281038252602381526020018061572e6023913960400191505060405180910390fd5b600083118015614c375750600082115b614c8c576040517f08c379a00000000000000000000000000000000000000000000000000000000081526004018080602001828103825260268152602001806159006026913960400191505060405180910390fd5b82614ca0838661532090919063ffffffff16565b81614ca757fe5b0490509392505050565b6000808273ffffffffffffffffffffffffffffffffffffffff168473ffffffffffffffffffffffffffffffffffffffff161415614d39576040517f08c379a00000000000000000000000000000000000000000000000000000000081526004018080602001828103825260238152602001806158dd6023913960400191505060405180910390fd5b8273ffffffffffffffffffffffffffffffffffffffff168473ffffffffffffffffffffffffffffffffffffffff1610614d73578284614d76565b83835b8092508193505050600073ffffffffffffffffffffffffffffffffffffffff168273ffffffffffffffffffffffffffffffffffffffff161415614e21576040517f08c379a000000000000000000000000000000000000000000000000000000000815260040180806020018281038252601c8152602001807f537761706966794c6962726172793a205a45524f5f414444524553530000000081525060200191505060405180910390fd5b9250929050565b600080600073ffffffffffffffffffffffffffffffffffffffff167f000000000000000000000000000000000000000000000000000000000000000073ffffffffffffffffffffffffffffffffffffffff1663e6a439058a8a6040518363ffffffff1660e01b8152600401808373ffffffffffffffffffffffffffffffffffffffff1673ffffffffffffffffffffffffffffffffffffffff1681526020018273ffffffffffffffffffffffffffffffffffffffff1673ffffffffffffffffffffffffffffffffffffffff1681526020019250505060206040518083038186803b158015614f1457600080fd5b505afa158015614f28573d6000803e3d6000fd5b505050506040513d6020811015614f3e57600080fd5b810190808051906020019092919050505073ffffffffffffffffffffffffffffffffffffffff16141561507b577f000000000000000000000000000000000000000000000000000000000000000073ffffffffffffffffffffffffffffffffffffffff1663c9c6539689896040518363ffffffff1660e01b8152600401808373ffffffffffffffffffffffffffffffffffffffff1673ffffffffffffffffffffffffffffffffffffffff1681526020018273ffffffffffffffffffffffffffffffffffffffff1673ffffffffffffffffffffffffffffffffffffffff16815260200192505050602060405180830381600087803b15801561503e57600080fd5b505af1158015615052573d6000803e3d6000fd5b505050506040513d602081101561506857600080fd5b8101908080519060200190929190505050505b6000806150a97f00000000000000000000000000000000000000000000000000000000000000008b8b615438565b915091506000821480156150bd5750600081145b156150d157878780945081955050506151cf565b60006150de898484614bcd565b905087811161514f5785811015615140576040517f08c379a000000000000000000000000000000000000000000000000000000000815260040180806020018281038252602481526020018061579c6024913960400191505060405180910390fd5b888180955081965050506151cd565b600061515c898486614bcd565b90508981111561516857fe5b878110156151c1576040517f08c379a000000000000000000000000000000000000000000000000000000000815260040180806020018281038252602481526020018061581f6024913960400191505060405180910390fd5b80898096508197505050505b505b5050965096945050505050565b600073ffffffffffffffffffffffffffffffffffffffff168173ffffffffffffffffffffffffffffffffffffffff161415615262576040517f08c379a00000000000000000000000000000000000000000000000000000000081526004018080602001828103825260268152602001806157516026913960400191505060405180910390fd5b8073ffffffffffffffffffffffffffffffffffffffff166000809054906101000a900473ffffffffffffffffffffffffffffffffffffffff1673ffffffffffffffffffffffffffffffffffffffff167f8be0079c531659141344cd1fd0a4f28419497f9722a3daafe3b4186f6b6457e060405160405180910390a3806000806101000a81548173ffffffffffffffffffffffffffffffffffffffff021916908373ffffffffffffffffffffffffffffffffffffffff16021790555050565b60008082148061533d575082828385029250828161533a57fe5b04145b6153af576040517f08c379a00000000000000000000000000000000000000000000000000000000081526004018080602001828103825260148152602001807f64732d6d6174682d6d756c2d6f766572666c6f7700000000000000000000000081525060200191505060405180910390fd5b92915050565b6000828284019150811015615432576040517f08c379a00000000000000000000000000000000000000000000000000000000081526004018080602001828103825260148152602001807f64732d6d6174682d6164642d6f766572666c6f7700000000000000000000000081525060200191505060405180910390fd5b92915050565b60008060006154478585614cb1565b509050615455868686614436565b50600080615464888888614436565b73ffffffffffffffffffffffffffffffffffffffff16630902f1ac6040518163ffffffff1660e01b815260040160606040518083038186803b1580156154a957600080fd5b505afa1580156154bd573d6000803e3d6000fd5b505050506040513d60608110156154d357600080fd5b81019080805190602001909291908051906020019092919080519060200190929190505050506dffffffffffffffffffffffffffff1691506dffffffffffffffffffffffffffff1691508273ffffffffffffffffffffffffffffffffffffffff168773ffffffffffffffffffffffffffffffffffffffff161461555757808261555a565b81815b8095508196505050505050935093915050565b60008084116155c7576040517f08c379a000000000000000000000000000000000000000000000000000000000815260040180806020018281038252602a815260200180615843602a913960400191505060405180910390fd5b6000831180156155d75750600082115b61562c576040517f08c379a00000000000000000000000000000000000000000000000000000000081526004018080602001828103825260268152602001806159006026913960400191505060405180910390fd5b60006156556103e8615647878761532090919063ffffffff16565b61532090919063ffffffff16565b905060006156806103e661567288876156aa90919063ffffffff16565b61532090919063ffffffff16565b905061569f600182848161569057fe5b046153b590919063ffffffff16565b925050509392505050565b6000828284039150811115615727576040517f08c379a00000000000000000000000000000000000000000000000000000000081526004018080602001828103825260158152602001807f64732d6d6174682d7375622d756e646572666c6f77000000000000000000000081525060200191505060405180910390fd5b9291505056fe537761706966794c6962726172793a20494e53554646494349454e545f414d4f554e544f776e61626c653a206e6577206f776e657220697320746865207a65726f206164647265737353776170696679526f757465723a204558434553534956455f494e5055545f414d4f554e5453776170696679526f757465723a20494e53554646494349454e545f425f414d4f554e545065726d69737369626c653a2063616c6c6572206973206e6f7420696e20746865206c697374206f66205065726d69737369626c657353776170696679526f757465723a20494e53554646494349454e545f4f55545055545f414d4f554e5453776170696679526f757465723a20494e53554646494349454e545f415f414d4f554e54537761706966794c6962726172793a20494e53554646494349454e545f4f55545055545f414d4f554e545472616e7366657248656c7065723a204554485f5452414e534645525f4641494c4544537761706966794c6962726172793a20494e53554646494349454e545f494e5055545f414d4f554e545472616e7366657248656c7065723a205452414e534645525f46524f4d5f4641494c4544537761706966794c6962726172793a204944454e544943414c5f414444524553534553537761706966794c6962726172793a20494e53554646494349454e545f4c4951554944495459a2646970667358221220a1687215bd3e7fa6dd331c0098647e99dec106b350210901be7dd609bcea93c264736f6c63430006060033",
  "immutableReferences": {
    "1880": [
      {
        "length": 32,
        "start": 5737
      },
      {
        "length": 32,
        "start": 6005
      },
      {
        "length": 32,
        "start": 6440
      },
      {
        "length": 32,
        "start": 6496
      },
      {
        "length": 32,
        "start": 7094
      },
      {
        "length": 32,
        "start": 7362
      },
      {
        "length": 32,
        "start": 8053
      },
      {
        "length": 32,
        "start": 8318
      },
      {
        "length": 32,
        "start": 9725
      },
      {
        "length": 32,
        "start": 10156
      },
      {
        "length": 32,
        "start": 10794
      },
      {
        "length": 32,
        "start": 11059
      },
      {
        "length": 32,
        "start": 11607
      },
      {
        "length": 32,
        "start": 12377
      },
      {
        "length": 32,
        "start": 12418
      },
      {
        "length": 32,
        "start": 12558
      },
      {
        "length": 32,
        "start": 13120
      },
      {
        "length": 32,
        "start": 13707
      },
      {
        "length": 32,
        "start": 15040
      },
      {
        "length": 32,
        "start": 15468
      },
      {
        "length": 32,
        "start": 18539
      },
      {
        "length": 32,
        "start": 18607
      },
      {
        "length": 32,
        "start": 20037
      },
      {
        "length": 32,
        "start": 20333
      },
      {
        "length": 32,
        "start": 20611
      }
    ],
    "1883": [
      {
        "length": 32,
        "start": 396
      },
      {
        "length": 32,
        "start": 5036
      },
      {
        "length": 32,
        "start": 5098
      },
      {
        "length": 32,
        "start": 5495
      },
      {
        "length": 32,
        "start": 6229
      },
      {
        "length": 32,
        "start": 7811
      },
      {
        "length": 32,
        "start": 8542
      },
      {
        "length": 32,
        "start": 9488
      },
      {
        "length": 32,
        "start": 9944
      },
      {
        "length": 32,
        "start": 10093
      },
      {
        "length": 32,
        "start": 11422
      },
      {
        "length": 32,
        "start": 12592
      },
      {
        "length": 32,
        "start": 13652
      },
      {
        "length": 32,
        "start": 13741
      },
      {
        "length": 32,
        "start": 13793
      },
      {
        "length": 32,
        "start": 13922
      },
      {
        "length": 32,
        "start": 14803
      },
      {
        "length": 32,
        "start": 15256
      },
      {
        "length": 32,
        "start": 15405
      }
    ]
  },
  "source": "pragma solidity =0.6.6;\r\n\r\nimport '@swapify-official/swapify-core/contracts/interfaces/ISwapifyFactory.sol';\r\nimport '@swapify-official/swapify-core/contracts/Permissible.sol';\r\nimport '@uniswap/lib/contracts/libraries/TransferHelper.sol';\r\n\r\nimport './libraries/SwapifyLibrary.sol';\r\nimport './interfaces/ISwapifyRouter01.sol';\r\nimport './interfaces/IERC20.sol';\r\nimport './interfaces/IWETH.sol';\r\n\r\ncontract SwapifyRouter01 is ISwapifyRouter01, Permissible {\r\n    address public immutable override factory;\r\n    address public immutable override WETH;\r\n\r\n    modifier ensure(uint deadline) {\r\n        require(deadline >= block.timestamp, 'SwapifyRouter: EXPIRED');\r\n        _;\r\n    }\r\n\r\n    constructor(address _factory, address _WETH) public {\r\n        factory = _factory;\r\n        WETH = _WETH;\r\n    }\r\n\r\n    receive() external payable {\r\n        assert(msg.sender == WETH); // only accept ETH via fallback from the WETH contract\r\n    }\r\n\r\n    // **** ADD LIQUIDITY ****\r\n    function _addLiquidity(\r\n        address tokenA,\r\n        address tokenB,\r\n        uint amountADesired,\r\n        uint amountBDesired,\r\n        uint amountAMin,\r\n        uint amountBMin\r\n    ) private returns (uint amountA, uint amountB) {\r\n        // create the pair if it doesn't exist yet\r\n        if (ISwapifyFactory(factory).getPair(tokenA, tokenB) == address(0)) {\r\n            ISwapifyFactory(factory).createPair(tokenA, tokenB);\r\n        }\r\n        (uint reserveA, uint reserveB) = SwapifyLibrary.getReserves(factory, tokenA, tokenB);\r\n        if (reserveA == 0 && reserveB == 0) {\r\n            (amountA, amountB) = (amountADesired, amountBDesired);\r\n        } else {\r\n            uint amountBOptimal = SwapifyLibrary.quote(amountADesired, reserveA, reserveB);\r\n            if (amountBOptimal <= amountBDesired) {\r\n                require(amountBOptimal >= amountBMin, 'SwapifyRouter: INSUFFICIENT_B_AMOUNT');\r\n                (amountA, amountB) = (amountADesired, amountBOptimal);\r\n            } else {\r\n                uint amountAOptimal = SwapifyLibrary.quote(amountBDesired, reserveB, reserveA);\r\n                assert(amountAOptimal <= amountADesired);\r\n                require(amountAOptimal >= amountAMin, 'SwapifyRouter: INSUFFICIENT_A_AMOUNT');\r\n                (amountA, amountB) = (amountAOptimal, amountBDesired);\r\n            }\r\n        }\r\n    }\r\n    function addLiquidity(\r\n        address tokenA,\r\n        address tokenB,\r\n        uint amountADesired,\r\n        uint amountBDesired,\r\n        uint amountAMin,\r\n        uint amountBMin,\r\n        address to,\r\n        uint deadline\r\n    ) external override ensure(deadline) returns (uint amountA, uint amountB, uint liquidity) {\r\n        (amountA, amountB) = _addLiquidity(tokenA, tokenB, amountADesired, amountBDesired, amountAMin, amountBMin);\r\n        address pair = SwapifyLibrary.pairFor(factory, tokenA, tokenB);\r\n        TransferHelper.safeTransferFrom(tokenA, msg.sender, pair, amountA);\r\n        TransferHelper.safeTransferFrom(tokenB, msg.sender, pair, amountB);\r\n        liquidity = ISwapifyPair(pair).mint(to);\r\n    }\r\n    function addLiquidityETH(\r\n        address token,\r\n        uint amountTokenDesired,\r\n        uint amountTokenMin,\r\n        uint amountETHMin,\r\n        address to,\r\n        uint deadline\r\n    ) external override payable ensure(deadline) returns (uint amountToken, uint amountETH, uint liquidity) {\r\n        (amountToken, amountETH) = _addLiquidity(\r\n            token,\r\n            WETH,\r\n            amountTokenDesired,\r\n            msg.value,\r\n            amountTokenMin,\r\n            amountETHMin\r\n        );\r\n        address pair = SwapifyLibrary.pairFor(factory, token, WETH);\r\n        TransferHelper.safeTransferFrom(token, msg.sender, pair, amountToken);\r\n        IWETH(WETH).deposit{value: amountETH}();\r\n        assert(IWETH(WETH).transfer(pair, amountETH));\r\n        liquidity = ISwapifyPair(pair).mint(to);\r\n        if (msg.value > amountETH) TransferHelper.safeTransferETH(msg.sender, msg.value - amountETH); // refund dust eth, if any\r\n    }\r\n\r\n    // **** REMOVE LIQUIDITY ****\r\n    function removeLiquidity(\r\n        address tokenA,\r\n        address tokenB,\r\n        uint liquidity,\r\n        uint amountAMin,\r\n        uint amountBMin,\r\n        address to,\r\n        uint deadline\r\n    ) public override ensure(deadline) returns (uint amountA, uint amountB) {\r\n        address pair = SwapifyLibrary.pairFor(factory, tokenA, tokenB);\r\n        ISwapifyPair(pair).transferFrom(msg.sender, pair, liquidity); // send liquidity to pair\r\n        (uint amount0, uint amount1) = ISwapifyPair(pair).burn(to);\r\n        (address token0,) = SwapifyLibrary.sortTokens(tokenA, tokenB);\r\n        (amountA, amountB) = tokenA == token0 ? (amount0, amount1) : (amount1, amount0);\r\n        require(amountA >= amountAMin, 'SwapifyRouter: INSUFFICIENT_A_AMOUNT');\r\n        require(amountB >= amountBMin, 'SwapifyRouter: INSUFFICIENT_B_AMOUNT');\r\n    }\r\n    function removeLiquidityETH(\r\n        address token,\r\n        uint liquidity,\r\n        uint amountTokenMin,\r\n        uint amountETHMin,\r\n        address to,\r\n        uint deadline\r\n    ) public override ensure(deadline) returns (uint amountToken, uint amountETH) {\r\n        (amountToken, amountETH) = removeLiquidity(\r\n            token,\r\n            WETH,\r\n            liquidity,\r\n            amountTokenMin,\r\n            amountETHMin,\r\n            address(this),\r\n            deadline\r\n        );\r\n        TransferHelper.safeTransfer(token, to, amountToken);\r\n        IWETH(WETH).withdraw(amountETH);\r\n        TransferHelper.safeTransferETH(to, amountETH);\r\n    }\r\n    function removeLiquidityWithPermit(\r\n        address tokenA,\r\n        address tokenB,\r\n        uint liquidity,\r\n        uint amountAMin,\r\n        uint amountBMin,\r\n        address to,\r\n        uint deadline,\r\n        bool approveMax, uint8 v, bytes32 r, bytes32 s\r\n    ) external override returns (uint amountA, uint amountB) {\r\n        address pair = SwapifyLibrary.pairFor(factory, tokenA, tokenB);\r\n        uint value = approveMax ? uint(-1) : liquidity;\r\n        ISwapifyPair(pair).permit(msg.sender, address(this), value, deadline, v, r, s);\r\n        (amountA, amountB) = removeLiquidity(tokenA, tokenB, liquidity, amountAMin, amountBMin, to, deadline);\r\n    }\r\n    function removeLiquidityETHWithPermit(\r\n        address token,\r\n        uint liquidity,\r\n        uint amountTokenMin,\r\n        uint amountETHMin,\r\n        address to,\r\n        uint deadline,\r\n        bool approveMax, uint8 v, bytes32 r, bytes32 s\r\n    ) external override returns (uint amountToken, uint amountETH) {\r\n        address pair = SwapifyLibrary.pairFor(factory, token, WETH);\r\n        uint value = approveMax ? uint(-1) : liquidity;\r\n        ISwapifyPair(pair).permit(msg.sender, address(this), value, deadline, v, r, s);\r\n        (amountToken, amountETH) = removeLiquidityETH(token, liquidity, amountTokenMin, amountETHMin, to, deadline);\r\n    }\r\n\r\n    // **** SWAP ****\r\n    // requires the initial amount to have already been sent to the first pair\r\n    function _swap(uint[] memory amounts, address[] memory path, address _to) private {\r\n        for (uint i; i < path.length - 1; i++) {\r\n            (address input, address output) = (path[i], path[i + 1]);\r\n            (address token0,) = SwapifyLibrary.sortTokens(input, output);\r\n            uint amountOut = amounts[i + 1];\r\n            (uint amount0Out, uint amount1Out) = input == token0 ? (uint(0), amountOut) : (amountOut, uint(0));\r\n            address to = i < path.length - 2 ? SwapifyLibrary.pairFor(factory, output, path[i + 2]) : _to;\r\n            ISwapifyPair(SwapifyLibrary.pairFor(factory, input, output)).swap(amount0Out, amount1Out, to, new bytes(0));\r\n        }\r\n    }\r\n    function swapExactTokensForTokens(\r\n        uint amountIn,\r\n        uint amountOutMin,\r\n        address[] calldata path,\r\n        address to,\r\n        uint deadline\r\n    ) external override ensure(deadline) onlyPermissible returns (uint[] memory amounts) {\r\n        amounts = SwapifyLibrary.getAmountsOut(factory, amountIn, path);\r\n        require(amounts[amounts.length - 1] >= amountOutMin, 'SwapifyRouter: INSUFFICIENT_OUTPUT_AMOUNT');\r\n        TransferHelper.safeTransferFrom(path[0], msg.sender, SwapifyLibrary.pairFor(factory, path[0], path[1]), amounts[0]);\r\n        _swap(amounts, path, to);\r\n    }\r\n    function swapTokensForExactTokens(\r\n        uint amountOut,\r\n        uint amountInMax,\r\n        address[] calldata path,\r\n        address to,\r\n        uint deadline\r\n    ) external override ensure(deadline) onlyPermissible returns (uint[] memory amounts) {\r\n        amounts = SwapifyLibrary.getAmountsIn(factory, amountOut, path);\r\n        require(amounts[0] <= amountInMax, 'SwapifyRouter: EXCESSIVE_INPUT_AMOUNT');\r\n        TransferHelper.safeTransferFrom(path[0], msg.sender, SwapifyLibrary.pairFor(factory, path[0], path[1]), amounts[0]);\r\n        _swap(amounts, path, to);\r\n    }\r\n    function swapExactETHForTokens(uint amountOutMin, address[] calldata path, address to, uint deadline)\r\n        external\r\n        override\r\n        payable\r\n        ensure(deadline)\r\n        onlyPermissible\r\n        returns (uint[] memory amounts)\r\n    {\r\n        require(path[0] == WETH, 'SwapifyRouter: INVALID_PATH');\r\n        amounts = SwapifyLibrary.getAmountsOut(factory, msg.value, path);\r\n        require(amounts[amounts.length - 1] >= amountOutMin, 'SwapifyRouter: INSUFFICIENT_OUTPUT_AMOUNT');\r\n        IWETH(WETH).deposit{value: amounts[0]}();\r\n        assert(IWETH(WETH).transfer(SwapifyLibrary.pairFor(factory, path[0], path[1]), amounts[0]));\r\n        _swap(amounts, path, to);\r\n    }\r\n    function swapTokensForExactETH(uint amountOut, uint amountInMax, address[] calldata path, address to, uint deadline)\r\n        external\r\n        override\r\n        ensure(deadline)\r\n        onlyPermissible\r\n        returns (uint[] memory amounts)\r\n    {\r\n        require(path[path.length - 1] == WETH, 'SwapifyRouter: INVALID_PATH');\r\n        amounts = SwapifyLibrary.getAmountsIn(factory, amountOut, path);\r\n        require(amounts[0] <= amountInMax, 'SwapifyRouter: EXCESSIVE_INPUT_AMOUNT');\r\n        TransferHelper.safeTransferFrom(path[0], msg.sender, SwapifyLibrary.pairFor(factory, path[0], path[1]), amounts[0]);\r\n        _swap(amounts, path, address(this));\r\n        IWETH(WETH).withdraw(amounts[amounts.length - 1]);\r\n        TransferHelper.safeTransferETH(to, amounts[amounts.length - 1]);\r\n    }\r\n    function swapExactTokensForETH(uint amountIn, uint amountOutMin, address[] calldata path, address to, uint deadline)\r\n        external\r\n        override\r\n        ensure(deadline)\r\n        onlyPermissible\r\n        returns (uint[] memory amounts)\r\n    {\r\n        require(path[path.length - 1] == WETH, 'SwapifyRouter: INVALID_PATH');\r\n        amounts = SwapifyLibrary.getAmountsOut(factory, amountIn, path);\r\n        require(amounts[amounts.length - 1] >= amountOutMin, 'SwapifyRouter: INSUFFICIENT_OUTPUT_AMOUNT');\r\n        TransferHelper.safeTransferFrom(path[0], msg.sender, SwapifyLibrary.pairFor(factory, path[0], path[1]), amounts[0]);\r\n        _swap(amounts, path, address(this));\r\n        IWETH(WETH).withdraw(amounts[amounts.length - 1]);\r\n        TransferHelper.safeTransferETH(to, amounts[amounts.length - 1]);\r\n    }\r\n    function swapETHForExactTokens(uint amountOut, address[] calldata path, address to, uint deadline)\r\n        external\r\n        override\r\n        payable\r\n        ensure(deadline)\r\n        onlyPermissible\r\n        returns (uint[] memory amounts)\r\n    {\r\n        require(path[0] == WETH, 'SwapifyRouter: INVALID_PATH');\r\n        amounts = SwapifyLibrary.getAmountsIn(factory, amountOut, path);\r\n        require(amounts[0] <= msg.value, 'SwapifyRouter: EXCESSIVE_INPUT_AMOUNT');\r\n        IWETH(WETH).deposit{value: amounts[0]}();\r\n        assert(IWETH(WETH).transfer(SwapifyLibrary.pairFor(factory, path[0], path[1]), amounts[0]));\r\n        _swap(amounts, path, to);\r\n        if (msg.value > amounts[0]) TransferHelper.safeTransferETH(msg.sender, msg.value - amounts[0]); // refund dust eth, if any\r\n    }\r\n\r\n    function quote(uint amountA, uint reserveA, uint reserveB) public pure override returns (uint amountB) {\r\n        return SwapifyLibrary.quote(amountA, reserveA, reserveB);\r\n    }\r\n\r\n    function getAmountOut(uint amountIn, uint reserveIn, uint reserveOut) public pure override returns (uint amountOut) {\r\n        return SwapifyLibrary.getAmountOut(amountIn, reserveIn, reserveOut);\r\n    }\r\n\r\n    function getAmountIn(uint amountOut, uint reserveIn, uint reserveOut) public pure override returns (uint amountIn) {\r\n        return SwapifyLibrary.getAmountOut(amountOut, reserveIn, reserveOut);\r\n    }\r\n\r\n    function getAmountsOut(uint amountIn, address[] memory path) public view override returns (uint[] memory amounts) {\r\n        return SwapifyLibrary.getAmountsOut(factory, amountIn, path);\r\n    }\r\n\r\n    function getAmountsIn(uint amountOut, address[] memory path) public view override returns (uint[] memory amounts) {\r\n        return SwapifyLibrary.getAmountsIn(factory, amountOut, path);\r\n    }\r\n}\r\n",
  "sourcePath": "C:/GitHub/Swapify-Periphery/contracts/SwapifyRouter01.sol",
  "compiler": {
    "name": "solc",
    "version": "0.6.6+commit.6c089d02.Emscripten.clang"
  },
  "schemaVersion": "3.4.1",
  "updatedAt": "2022-03-03T20:10:28.239Z",
  "devdoc": {
    "methods": {
      "addPermittedAccount(address)": {
        "details": "Adds the address to the list of permitted accounts. Only external accounts should be added. Adding a contract address will not be permitted to do transaction."
      },
      "isOwner()": {
        "details": "Returns true if the caller is the current owner."
      },
      "isPermissible()": {
        "details": "Returns true if the caller is among the list of permitted accounts. Only allowed for external accounts."
      },
      "owner()": {
        "details": "Returns the address of the current owner."
      },
      "removePermittedAccount(address)": {
        "details": "Removes or deactivate the address from the list of permitted accounts."
      },
      "renounceOwnership()": {
        "details": "Leaves the contract without owner. It will not be possible to call `onlyOwner` functions anymore. Can only be called by the current owner.      * > Note: Renouncing ownership will leave the contract without an owner, thereby removing any functionality that is only available to the owner."
      },
      "transferOwnership(address)": {
        "details": "Transfers ownership of the contract to a new account (`newOwner`). Can only be called by the current owner."
      }
    }
  },
  "userdoc": {
    "methods": {}
  }
}